{
  "_format": "hh-sol-artifact-1",
  "contractName": "AnyFunder",
  "sourceName": "contracts/core/AnyFunder.sol",
  "abi": [
    {
      "inputs": [
        {
          "internalType": "address",
          "name": "currency",
          "type": "address"
        },
        {
          "internalType": "address",
          "name": "wrappedToken",
          "type": "address"
        },
        {
          "internalType": "contract ISwapRouter",
          "name": "swapRouter",
          "type": "address"
        }
      ],
      "stateMutability": "nonpayable",
      "type": "constructor"
    },
    {
      "anonymous": false,
      "inputs": [
        {
          "indexed": true,
          "internalType": "address",
          "name": "previousOwner",
          "type": "address"
        },
        {
          "indexed": true,
          "internalType": "address",
          "name": "newOwner",
          "type": "address"
        }
      ],
      "name": "OwnershipTransferred",
      "type": "event"
    },
    {
      "inputs": [],
      "name": "owner",
      "outputs": [
        {
          "internalType": "address",
          "name": "",
          "type": "address"
        }
      ],
      "stateMutability": "view",
      "type": "function"
    },
    {
      "inputs": [],
      "name": "renounceOwnership",
      "outputs": [],
      "stateMutability": "nonpayable",
      "type": "function"
    },
    {
      "inputs": [
        {
          "internalType": "address",
          "name": "newOwner",
          "type": "address"
        }
      ],
      "name": "transferOwnership",
      "outputs": [],
      "stateMutability": "nonpayable",
      "type": "function"
    },
    {
      "inputs": [],
      "name": "withdrawFunds",
      "outputs": [],
      "stateMutability": "nonpayable",
      "type": "function"
    }
  ],
  "bytecode": "0x60a060405234801561001057600080fd5b5060405161093938038061093983398101604081905261002f916100e3565b6100383361007b565b60018054336001600160a01b0319918216179091556002805482166001600160a01b03958616179055600380549091169284169290921790915516608052610130565b600080546001600160a01b038381166001600160a01b0319831681178455604051919092169283917f8be0079c531659141344cd1fd0a4f28419497f9722a3daafe3b4186f6b6457e09190a35050565b6001600160a01b03811681146100e057600080fd5b50565b6000806000606084860312156100f857600080fd5b8351610103816100cb565b6020850151909350610114816100cb565b6040850151909250610125816100cb565b809150509250925092565b6080516107f1610148600039600050506107f16000f3fe608060405234801561001057600080fd5b506004361061004c5760003560e01c806324600fc314610051578063715018a61461005b5780638da5cb5b14610063578063f2fde38b14610082575b600080fd5b610059610095565b005b6100596101b2565b600054604080516001600160a01b039092168252519081900360200190f35b6100596100903660046106d0565b6101e6565b6000546001600160a01b031633146100c85760405162461bcd60e51b81526004016100bf906106f9565b60405180910390fd5b6002546001600160a01b031673eeeeeeeeeeeeeeeeeeeeeeeeeeeeeeeeeeeeeeee141561010757600154610105906001600160a01b031647610281565b565b6002546040516370a0823160e01b81523060048201526001600160a01b039091169060009082906370a082319060240160206040518083038186803b15801561014f57600080fd5b505afa158015610163573d6000803e3d6000fd5b505050506040513d601f19601f82011682018060405250810190610187919061072e565b905080156101ae576002546001546101ae916001600160a01b039081169130911684610329565b5050565b6000546001600160a01b031633146101dc5760405162461bcd60e51b81526004016100bf906106f9565b6101056000610390565b6000546001600160a01b031633146102105760405162461bcd60e51b81526004016100bf906106f9565b6001600160a01b0381166102755760405162461bcd60e51b815260206004820152602660248201527f4f776e61626c653a206e6577206f776e657220697320746865207a65726f206160448201526564647265737360d01b60648201526084016100bf565b61027e81610390565b50565b6000826001600160a01b03168260405160006040518083038185875af1925050503d80600081146102ce576040519150601f19603f3d011682016040523d82523d6000602084013e6102d3565b606091505b50509050806103245760405162461bcd60e51b815260206004820152601d60248201527f556e61626c6520746f2073656e642076616c756520746f20757365722e00000060448201526064016100bf565b505050565b816001600160a01b0316836001600160a01b031614156103485761038a565b836001600160a01b0384163014156103735761036e6001600160a01b03821684846103e0565b610388565b6103886001600160a01b038216858585610443565b505b50505050565b600080546001600160a01b038381166001600160a01b0319831681178455604051919092169283917f8be0079c531659141344cd1fd0a4f28419497f9722a3daafe3b4186f6b6457e09190a35050565b6040516001600160a01b03831660248201526044810182905261032490849063a9059cbb60e01b906064015b60408051601f198184030181529190526020810180516001600160e01b03166001600160e01b03199093169290921790915261047b565b6040516001600160a01b038085166024830152831660448201526064810182905261038a9085906323b872dd60e01b9060840161040c565b60006104d0826040518060400160405280602081526020017f5361666545524332303a206c6f772d6c6576656c2063616c6c206661696c6564815250856001600160a01b031661054d9092919063ffffffff16565b80519091501561032457808060200190518101906104ee9190610747565b6103245760405162461bcd60e51b815260206004820152602a60248201527f5361666545524332303a204552433230206f7065726174696f6e20646964206e6044820152691bdd081cdd58d8d9595960b21b60648201526084016100bf565b606061055c8484600085610566565b90505b9392505050565b6060824710156105c75760405162461bcd60e51b815260206004820152602660248201527f416464726573733a20696e73756666696369656e742062616c616e636520666f6044820152651c8818d85b1b60d21b60648201526084016100bf565b6001600160a01b0385163b61061e5760405162461bcd60e51b815260206004820152601d60248201527f416464726573733a2063616c6c20746f206e6f6e2d636f6e747261637400000060448201526064016100bf565b600080866001600160a01b0316858760405161063a9190610795565b60006040518083038185875af1925050503d8060008114610677576040519150601f19603f3d011682016040523d82523d6000602084013e61067c565b606091505b509150915061068c828286610697565b979650505050505050565b606083156106a657508161055f565b8251156106b65782518084602001fd5b8160405162461bcd60e51b81526004016100bf91906107b1565b6000602082840312156106e257600080fd5b81356001600160a01b038116811461055f57600080fd5b6020808252818101527f4f776e61626c653a2063616c6c6572206973206e6f7420746865206f776e6572604082015260600190565b60006020828403121561074057600080fd5b5051919050565b60006020828403121561075957600080fd5b8151801515811461055f57600080fd5b60005b8381101561078457818101518382015260200161076c565b8381111561038a5750506000910152565b600082516107a7818460208701610769565b9190910192915050565b60208152600082518060208401526107d0816040850160208701610769565b601f01601f1916919091016040019291505056fea164736f6c6343000809000a",
  "linkReferences": {},
  "deployedLinkReferences": {}
}