{
  "_format": "hh-sol-artifact-1",
  "contractName": "AnyFunder",
  "sourceName": "contracts/core/AnyFunder.sol",
  "abi": [
    {
      "inputs": [
        {
          "internalType": "address",
          "name": "currency",
          "type": "address"
        },
        {
          "internalType": "address",
          "name": "wrappedToken",
          "type": "address"
        },
        {
          "internalType": "contract ISwapRouter",
          "name": "swapRouter",
          "type": "address"
        }
      ],
      "stateMutability": "nonpayable",
      "type": "constructor"
    },
    {
      "anonymous": false,
      "inputs": [
        {
          "indexed": true,
          "internalType": "address",
          "name": "previousOwner",
          "type": "address"
        },
        {
          "indexed": true,
          "internalType": "address",
          "name": "newOwner",
          "type": "address"
        }
      ],
      "name": "OwnershipTransferred",
      "type": "event"
    },
    {
      "inputs": [],
      "name": "owner",
      "outputs": [
        {
          "internalType": "address",
          "name": "",
          "type": "address"
        }
      ],
      "stateMutability": "view",
      "type": "function"
    },
    {
      "inputs": [],
      "name": "renounceOwnership",
      "outputs": [],
      "stateMutability": "nonpayable",
      "type": "function"
    },
    {
      "inputs": [
        {
          "internalType": "address",
          "name": "newOwner",
          "type": "address"
        }
      ],
      "name": "transferOwnership",
      "outputs": [],
      "stateMutability": "nonpayable",
      "type": "function"
    },
    {
      "inputs": [],
      "name": "withdrawFunds",
      "outputs": [],
      "stateMutability": "nonpayable",
      "type": "function"
    }
  ],
  "bytecode": "0x60a060405234801561001057600080fd5b5060405161068b38038061068b83398101604081905261002f916100e3565b6100383361007b565b60018054336001600160a01b0319918216179091556002805482166001600160a01b03958616179055600380549091169284169290921790915516608052610130565b600080546001600160a01b038381166001600160a01b0319831681178455604051919092169283917f8be0079c531659141344cd1fd0a4f28419497f9722a3daafe3b4186f6b6457e09190a35050565b6001600160a01b03811681146100e057600080fd5b50565b6000806000606084860312156100f857600080fd5b8351610103816100cb565b6020850151909350610114816100cb565b6040850151909250610125816100cb565b809150509250925092565b608051610543610148600039600050506105436000f3fe608060405234801561001057600080fd5b506004361061004c5760003560e01c806324600fc314610051578063715018a61461005b5780638da5cb5b14610063578063f2fde38b14610082575b600080fd5b610059610095565b005b61005961023f565b600054604080516001600160a01b039092168252519081900360200190f35b61005961009036600461045b565b610273565b6000546001600160a01b031633146100c85760405162461bcd60e51b81526004016100bf9061048b565b60405180910390fd5b6002546001600160a01b031673eeeeeeeeeeeeeeeeeeeeeeeeeeeeeeeeeeeeeeee1415610195576001546040516000916001600160a01b03169047908381818185875af1925050503d806000811461013c576040519150601f19603f3d011682016040523d82523d6000602084013e610141565b606091505b50509050806101925760405162461bcd60e51b815260206004820152601e60248201527f556e61626c6520746f2073656e642076616c756520746f206f776e65722e000060448201526064016100bf565b50565b6002546040516370a0823160e01b81523060048201526001600160a01b039091169060009082906370a082319060240160206040518083038186803b1580156101dd57600080fd5b505afa1580156101f1573d6000803e3d6000fd5b505050506040513d601f19601f8201168201806040525081019061021591906104c0565b9050801561023a5760025460015461023a916001600160a01b0390811691168361030b565b50505b565b6000546001600160a01b031633146102695760405162461bcd60e51b81526004016100bf9061048b565b61023d600061040b565b6000546001600160a01b0316331461029d5760405162461bcd60e51b81526004016100bf9061048b565b6001600160a01b0381166103025760405162461bcd60e51b815260206004820152602660248201527f4f776e61626c653a206e6577206f776e657220697320746865207a65726f206160448201526564647265737360d01b60648201526084016100bf565b6101928161040b565b604080516001600160a01b038481166024830152604480830185905283518084039091018152606490920183526020820180516001600160e01b031663a9059cbb60e01b179052915160009283929087169161036791906104d9565b6000604051808303816000865af19150503d80600081146103a4576040519150601f19603f3d011682016040523d82523d6000602084013e6103a9565b606091505b50915091508180156103d35750805115806103d35750808060200190518101906103d39190610514565b6104045760405162461bcd60e51b815260206004820152600260248201526114d560f21b60448201526064016100bf565b5050505050565b600080546001600160a01b038381166001600160a01b0319831681178455604051919092169283917f8be0079c531659141344cd1fd0a4f28419497f9722a3daafe3b4186f6b6457e09190a35050565b60006020828403121561046d57600080fd5b81356001600160a01b038116811461048457600080fd5b9392505050565b6020808252818101527f4f776e61626c653a2063616c6c6572206973206e6f7420746865206f776e6572604082015260600190565b6000602082840312156104d257600080fd5b5051919050565b6000825160005b818110156104fa57602081860181015185830152016104e0565b81811115610509576000828501525b509190910192915050565b60006020828403121561052657600080fd5b8151801515811461048457600080fdfea164736f6c6343000809000a",
  "linkReferences": {},
  "deployedLinkReferences": {}
}