{
  "_format": "hh-sol-artifact-1",
  "contractName": "AnyFunder",
  "sourceName": "contracts/core/AnyFunder.sol",
  "abi": [
    {
      "inputs": [
        {
          "internalType": "address",
          "name": "currency_",
          "type": "address"
        },
        {
          "internalType": "address",
          "name": "wrappedToken",
          "type": "address"
        },
        {
          "internalType": "contract ISwapRouter",
          "name": "swapRouter",
          "type": "address"
        }
      ],
      "stateMutability": "nonpayable",
      "type": "constructor"
    },
    {
      "anonymous": false,
      "inputs": [
        {
          "indexed": true,
          "internalType": "address",
          "name": "previousOwner",
          "type": "address"
        },
        {
          "indexed": true,
          "internalType": "address",
          "name": "newOwner",
          "type": "address"
        }
      ],
      "name": "OwnershipTransferred",
      "type": "event"
    },
    {
      "anonymous": false,
      "inputs": [
        {
          "components": [
            {
              "internalType": "address",
              "name": "from",
              "type": "address"
            },
            {
              "internalType": "string",
              "name": "message",
              "type": "string"
            },
            {
              "internalType": "uint256",
              "name": "amount",
              "type": "uint256"
            },
            {
              "internalType": "uint256",
              "name": "timestamp",
              "type": "uint256"
            }
          ],
          "indexed": false,
          "internalType": "struct AnyFunder.Payment",
          "name": "payment",
          "type": "tuple"
        }
      ],
      "name": "PaymentMade",
      "type": "event"
    },
    {
      "inputs": [],
      "name": "currency",
      "outputs": [
        {
          "internalType": "address",
          "name": "",
          "type": "address"
        }
      ],
      "stateMutability": "view",
      "type": "function"
    },
    {
      "inputs": [],
      "name": "owner",
      "outputs": [
        {
          "internalType": "address",
          "name": "",
          "type": "address"
        }
      ],
      "stateMutability": "view",
      "type": "function"
    },
    {
      "inputs": [
        {
          "internalType": "address",
          "name": "userCurrency",
          "type": "address"
        },
        {
          "internalType": "uint256",
          "name": "amount",
          "type": "uint256"
        },
        {
          "internalType": "string",
          "name": "message",
          "type": "string"
        }
      ],
      "name": "pay",
      "outputs": [],
      "stateMutability": "payable",
      "type": "function"
    },
    {
      "inputs": [],
      "name": "paymentsHistory",
      "outputs": [
        {
          "components": [
            {
              "internalType": "address",
              "name": "from",
              "type": "address"
            },
            {
              "internalType": "string",
              "name": "message",
              "type": "string"
            },
            {
              "internalType": "uint256",
              "name": "amount",
              "type": "uint256"
            },
            {
              "internalType": "uint256",
              "name": "timestamp",
              "type": "uint256"
            }
          ],
          "internalType": "struct AnyFunder.Payment[]",
          "name": "",
          "type": "tuple[]"
        }
      ],
      "stateMutability": "view",
      "type": "function"
    },
    {
      "inputs": [],
      "name": "renounceOwnership",
      "outputs": [],
      "stateMutability": "nonpayable",
      "type": "function"
    },
    {
      "inputs": [],
      "name": "totalEarnings",
      "outputs": [
        {
          "internalType": "uint256",
          "name": "",
          "type": "uint256"
        }
      ],
      "stateMutability": "view",
      "type": "function"
    },
    {
      "inputs": [
        {
          "internalType": "address",
          "name": "newOwner",
          "type": "address"
        }
      ],
      "name": "transferOwnership",
      "outputs": [],
      "stateMutability": "nonpayable",
      "type": "function"
    },
    {
      "inputs": [],
      "name": "withdrawFunds",
      "outputs": [],
      "stateMutability": "nonpayable",
      "type": "function"
    }
  ],
  "bytecode": "0x60a06040523480156200001157600080fd5b50604051620017f1380380620017f18339810160408190526200003491620000ec565b6200003f3362000083565b60018054336001600160a01b0319918216179091556002805482166001600160a01b0395861617905560038054909116928416929092179091551660805262000140565b600080546001600160a01b038381166001600160a01b0319831681178455604051919092169283917f8be0079c531659141344cd1fd0a4f28419497f9722a3daafe3b4186f6b6457e09190a35050565b6001600160a01b0381168114620000e957600080fd5b50565b6000806000606084860312156200010257600080fd5b83516200010f81620000d3565b60208501519093506200012281620000d3565b60408501519092506200013581620000d3565b809150509250925092565b6080516116956200015c600039600061036801526116956000f3fe60806040526004361061007b5760003560e01c80638da5cb5b1161004e5780638da5cb5b146100e7578063dda9a35814610119578063e5a6b10f1461013b578063f2fde38b1461015957600080fd5b806324600fc3146100805780632df3eba4146100975780634a4bdb30146100bf578063715018a6146100d2575b600080fd5b34801561008c57600080fd5b50610095610179565b005b3480156100a357600080fd5b506100ac610291565b6040519081526020015b60405180910390f35b6100956100cd3660046112a6565b6102d6565b3480156100de57600080fd5b5061009561045e565b3480156100f357600080fd5b506000546001600160a01b03165b6040516001600160a01b0390911681526020016100b6565b34801561012557600080fd5b5061012e610492565b6040516100b691906113c9565b34801561014757600080fd5b506002546001600160a01b0316610101565b34801561016557600080fd5b5061009561017436600461145f565b610628565b6000546001600160a01b031633146101ac5760405162461bcd60e51b81526004016101a39061147a565b60405180910390fd5b6002546001600160a01b031673eeeeeeeeeeeeeeeeeeeeeeeeeeeeeeeeeeeeeeee14156101eb576001546101e9906001600160a01b031647610676565b565b6002546040516370a0823160e01b81523060048201526000916001600160a01b0316906370a082319060240160206040518083038186803b15801561022f57600080fd5b505afa158015610243573d6000803e3d6000fd5b505050506040513d601f19601f8201168201806040525081019061026791906114af565b9050801561028e5760025460015461028e916001600160a01b03908116913091168461071e565b50565b600080805b6004548110156102d0576000818152600560205260409020600201546102bc90836114de565b9150806102c8816114f6565b915050610296565b50919050565b6001600160a01b03831673eeeeeeeeeeeeeeeeeeeeeeeeeeeeeeeeeeeeeeee141561034a5781341461034a5760405162461bcd60e51b815260206004820152601d60248201527f416d6f756e74206d757374206d617463682076616c75652073656e742e00000060448201526064016101a3565b60025460035461038e91849186916001600160a01b039081169130917f00000000000000000000000000000000000000000000000000000000000000009116610782565b5060408051608081018252338152602080820184815282840186905242606084015260045460009081526005835293909320825181546001600160a01b0319166001600160a01b03909116178155925180519293926103f392600185019201906111db565b5060408281015160028301556060909201516003909101556004546000908152600560205281902090517f5bfca26e94909cebbcb074b7bec33c5dec65d8abd3de139321f330f9d079b3cb9161044891611546565b60405180910390a1505060048054600101905550565b6000546001600160a01b031633146104885760405162461bcd60e51b81526004016101a39061147a565b6101e96000610990565b6060600060045467ffffffffffffffff8111156104b1576104b1611290565b60405190808252806020026020018201604052801561051657816020015b610503604051806080016040528060006001600160a01b031681526020016060815260200160008152602001600081525090565b8152602001906001900390816104cf5790505b50905060005b6004548110156102d05760008181526005602090815260409182902082516080810190935280546001600160a01b03168352600181018054919284019161056290611511565b80601f016020809104026020016040519081016040528092919081815260200182805461058e90611511565b80156105db5780601f106105b0576101008083540402835291602001916105db565b820191906000526020600020905b8154815290600101906020018083116105be57829003601f168201915b505050505081526020016002820154815260200160038201548152505082828151811061060a5761060a611621565b60200260200101819052508080610620906114f6565b91505061051c565b6000546001600160a01b031633146106525760405162461bcd60e51b81526004016101a39061147a565b600180546001600160a01b0319166001600160a01b03831617905561028e816109e0565b6000826001600160a01b03168260405160006040518083038185875af1925050503d80600081146106c3576040519150601f19603f3d011682016040523d82523d6000602084013e6106c8565b606091505b50509050806107195760405162461bcd60e51b815260206004820152601d60248201527f556e61626c6520746f2073656e642076616c756520746f20757365722e00000060448201526064016101a3565b505050565b816001600160a01b0316836001600160a01b0316141561073d5761077c565b6001600160a01b038316301415610767576107626001600160a01b0385168383610a78565b61077c565b61077c6001600160a01b038516848484610adb565b50505050565b60006001600160a01b0386811673eeeeeeeeeeeeeeeeeeeeeeeeeeeeeeeeeeeeeeee811491871614156107d95780156107c4576107bf8589610676565b6107d0565b6107d08733878b61071e565b87915050610986565b6001600160a01b03861673eeeeeeeeeeeeeeeeeeeeeeeeeeeeeeeeeeeeeeee1485821561080a5761080a858b610b13565b8115610817578497503096505b6108238933308d610bef565b61082e89878c610cf9565b60408051610100810182526001600160a01b03808c1682528a81166020830152610bb882840152898116606083015242608083015260a082018d9052600060c0830181905260e08301819052925163414bf38960e01b81529192919089169063414bf3899061090590859060040181516001600160a01b03908116825260208084015182169083015260408084015162ffffff16908301526060808401518216908301526080808401519083015260a0838101519083015260c0808401519083015260e09283015116918101919091526101000190565b602060405180830381600087803b15801561091f57600080fd5b505af1158015610933573d6000803e3d6000fd5b505050506040513d601f19601f8201168201806040525081019061095791906114af565b905083801561096f57506001600160a01b0389163014155b1561097f5761097f878285610df9565b9450505050505b9695505050505050565b600080546001600160a01b038381166001600160a01b0319831681178455604051919092169283917f8be0079c531659141344cd1fd0a4f28419497f9722a3daafe3b4186f6b6457e09190a35050565b6000546001600160a01b03163314610a0a5760405162461bcd60e51b81526004016101a39061147a565b6001600160a01b038116610a6f5760405162461bcd60e51b815260206004820152602660248201527f4f776e61626c653a206e6577206f776e657220697320746865207a65726f206160448201526564647265737360d01b60648201526084016101a3565b61028e81610990565b6040516001600160a01b03831660248201526044810182905261071990849063a9059cbb60e01b906064015b60408051601f198184030181529190526020810180516001600160e01b03166001600160e01b031990931692909217909152610ed8565b6040516001600160a01b038085166024830152831660448201526064810182905261077c9085906323b872dd60e01b90608401610aa4565b610b1d8282610faa565b60405163a9059cbb60e01b8152336004820152602481018290526000906001600160a01b0384169063a9059cbb90604401602060405180830381600087803b158015610b6857600080fd5b505af1158015610b7c573d6000803e3d6000fd5b505050506040513d601f19601f82011682018060405250810190610ba09190611637565b9050806107195760405162461bcd60e51b815260206004820181905260248201527f556e61626c6520746f207472616e73666572205745544820746f20757365722e60448201526064016101a3565b604080516001600160a01b0385811660248301528481166044830152606480830185905283518084039091018152608490920183526020820180516001600160e01b03166323b872dd60e01b1790529151600092839290881691610c539190611659565b6000604051808303816000865af19150503d8060008114610c90576040519150601f19603f3d011682016040523d82523d6000602084013e610c95565b606091505b5091509150818015610cbf575080511580610cbf575080806020019051810190610cbf9190611637565b610cf15760405162461bcd60e51b815260206004820152600360248201526229aa2360e91b60448201526064016101a3565b505050505050565b604080516001600160a01b038481166024830152604480830185905283518084039091018152606490920183526020820180516001600160e01b031663095ea7b360e01b1790529151600092839290871691610d559190611659565b6000604051808303816000865af19150503d8060008114610d92576040519150601f19603f3d011682016040523d82523d6000602084013e610d97565b606091505b5091509150818015610dc1575080511580610dc1575080806020019051810190610dc19190611637565b610df25760405162461bcd60e51b8152602060048201526002602482015261534160f01b60448201526064016101a3565b5050505050565b610e038383611002565b60405163a9059cbb60e01b81526001600160a01b038281166004830152602482018490526000919085169063a9059cbb90604401602060405180830381600087803b158015610e5157600080fd5b505af1158015610e65573d6000803e3d6000fd5b505050506040513d601f19601f82011682018060405250810190610e899190611637565b90508061077c5760405162461bcd60e51b815260206004820181905260248201527f556e61626c6520746f207472616e73666572205745544820746f20757365722e60448201526064016101a3565b6000610f2d826040518060400160405280602081526020017f5361666545524332303a206c6f772d6c6576656c2063616c6c206661696c6564815250856001600160a01b03166110589092919063ffffffff16565b8051909150156107195780806020019051810190610f4b9190611637565b6107195760405162461bcd60e51b815260206004820152602a60248201527f5361666545524332303a204552433230206f7065726174696f6e20646964206e6044820152691bdd081cdd58d8d9595960b21b60648201526084016101a3565b816001600160a01b031663d0e30db0826040518263ffffffff1660e01b81526004016000604051808303818588803b158015610fe557600080fd5b505af1158015610ff9573d6000803e3d6000fd5b50505050505050565b604051632e1a7d4d60e01b8152600481018290526001600160a01b03831690632e1a7d4d90602401600060405180830381600087803b15801561104457600080fd5b505af1158015610cf1573d6000803e3d6000fd5b60606110678484600085611071565b90505b9392505050565b6060824710156110d25760405162461bcd60e51b815260206004820152602660248201527f416464726573733a20696e73756666696369656e742062616c616e636520666f6044820152651c8818d85b1b60d21b60648201526084016101a3565b6001600160a01b0385163b6111295760405162461bcd60e51b815260206004820152601d60248201527f416464726573733a2063616c6c20746f206e6f6e2d636f6e747261637400000060448201526064016101a3565b600080866001600160a01b031685876040516111459190611659565b60006040518083038185875af1925050503d8060008114611182576040519150601f19603f3d011682016040523d82523d6000602084013e611187565b606091505b50915091506111978282866111a2565b979650505050505050565b606083156111b157508161106a565b8251156111c15782518084602001fd5b8160405162461bcd60e51b81526004016101a39190611675565b8280546111e790611511565b90600052602060002090601f016020900481019282611209576000855561124f565b82601f1061122257805160ff191683800117855561124f565b8280016001018555821561124f579182015b8281111561124f578251825591602001919060010190611234565b5061125b92915061125f565b5090565b5b8082111561125b5760008155600101611260565b80356001600160a01b038116811461128b57600080fd5b919050565b634e487b7160e01b600052604160045260246000fd5b6000806000606084860312156112bb57600080fd5b6112c484611274565b925060208401359150604084013567ffffffffffffffff808211156112e857600080fd5b818601915086601f8301126112fc57600080fd5b81358181111561130e5761130e611290565b604051601f8201601f19908116603f0116810190838211818310171561133657611336611290565b8160405282815289602084870101111561134f57600080fd5b8260208601602083013760006020848301015280955050505050509250925092565b60005b8381101561138c578181015183820152602001611374565b8381111561077c5750506000910152565b600081518084526113b5816020860160208601611371565b601f01601f19169290920160200192915050565b60006020808301818452808551808352604092508286019150828160051b87010184880160005b8381101561145157888303603f19018552815180516001600160a01b03168452878101516080898601819052906114298287018261139d565b838a0151878b01526060938401519390960192909252505093860193908601906001016113f0565b509098975050505050505050565b60006020828403121561147157600080fd5b61106a82611274565b6020808252818101527f4f776e61626c653a2063616c6c6572206973206e6f7420746865206f776e6572604082015260600190565b6000602082840312156114c157600080fd5b5051919050565b634e487b7160e01b600052601160045260246000fd5b600082198211156114f1576114f16114c8565b500190565b600060001982141561150a5761150a6114c8565b5060010190565b600181811c9082168061152557607f821691505b602082108114156102d057634e487b7160e01b600052602260045260246000fd5b602080825282546001600160a01b0316828201526080604083015260018381018054600093929190849080841c8185168061158257607f821691505b8682108114156115a057634e487b7160e01b84526022600452602484fd5b60a0890182905260c089018180156115bf57600181146115d0576115fb565b60ff198516825288820195506115fb565b60008781526020902060005b858110156115f557815484820152908901908a016115dc565b83019650505b505050505060028701546060870152600387015460808701528094505050505092915050565b634e487b7160e01b600052603260045260246000fd5b60006020828403121561164957600080fd5b8151801515811461106a57600080fd5b6000825161166b818460208701611371565b9190910192915050565b60208152600061106a602083018461139d56fea164736f6c6343000809000a",
  "linkReferences": {},
  "deployedLinkReferences": {}
}