{
  "_format": "hh-sol-artifact-1",
  "contractName": "AnyFunder",
  "sourceName": "contracts/core/AnyFunder.sol",
  "abi": [
    {
      "inputs": [
        {
          "internalType": "address",
          "name": "currency_",
          "type": "address"
        },
        {
          "internalType": "address",
          "name": "wrappedToken",
          "type": "address"
        },
        {
          "internalType": "contract ISwapRouter",
          "name": "swapRouter",
          "type": "address"
        }
      ],
      "stateMutability": "nonpayable",
      "type": "constructor"
    },
    {
      "anonymous": false,
      "inputs": [
        {
          "indexed": true,
          "internalType": "address",
          "name": "previousOwner",
          "type": "address"
        },
        {
          "indexed": true,
          "internalType": "address",
          "name": "newOwner",
          "type": "address"
        }
      ],
      "name": "OwnershipTransferred",
      "type": "event"
    },
    {
      "anonymous": false,
      "inputs": [
        {
          "components": [
            {
              "internalType": "address",
              "name": "from",
              "type": "address"
            },
            {
              "internalType": "string",
              "name": "message",
              "type": "string"
            },
            {
              "internalType": "uint256",
              "name": "amount",
              "type": "uint256"
            }
          ],
          "indexed": false,
          "internalType": "struct AnyFunder.Payment",
          "name": "payment",
          "type": "tuple"
        }
      ],
      "name": "PaymentMade",
      "type": "event"
    },
    {
      "inputs": [],
      "name": "currency",
      "outputs": [
        {
          "internalType": "address",
          "name": "",
          "type": "address"
        }
      ],
      "stateMutability": "view",
      "type": "function"
    },
    {
      "inputs": [],
      "name": "owner",
      "outputs": [
        {
          "internalType": "address",
          "name": "",
          "type": "address"
        }
      ],
      "stateMutability": "view",
      "type": "function"
    },
    {
      "inputs": [
        {
          "internalType": "address",
          "name": "userCurrency",
          "type": "address"
        },
        {
          "internalType": "uint256",
          "name": "amount",
          "type": "uint256"
        },
        {
          "internalType": "string",
          "name": "message",
          "type": "string"
        }
      ],
      "name": "payCustom",
      "outputs": [],
      "stateMutability": "payable",
      "type": "function"
    },
    {
      "inputs": [],
      "name": "paymentsHistory",
      "outputs": [
        {
          "components": [
            {
              "internalType": "address",
              "name": "from",
              "type": "address"
            },
            {
              "internalType": "string",
              "name": "message",
              "type": "string"
            },
            {
              "internalType": "uint256",
              "name": "amount",
              "type": "uint256"
            }
          ],
          "internalType": "struct AnyFunder.Payment[]",
          "name": "",
          "type": "tuple[]"
        }
      ],
      "stateMutability": "view",
      "type": "function"
    },
    {
      "inputs": [],
      "name": "renounceOwnership",
      "outputs": [],
      "stateMutability": "nonpayable",
      "type": "function"
    },
    {
      "inputs": [
        {
          "internalType": "address",
          "name": "newOwner",
          "type": "address"
        }
      ],
      "name": "transferOwnership",
      "outputs": [],
      "stateMutability": "nonpayable",
      "type": "function"
    },
    {
      "inputs": [],
      "name": "withdrawFunds",
      "outputs": [],
      "stateMutability": "nonpayable",
      "type": "function"
    }
  ],
  "bytecode": "0x60a06040523480156200001157600080fd5b5060405162001738380380620017388339810160408190526200003491620000ec565b6200003f3362000083565b60018054336001600160a01b0319918216179091556002805482166001600160a01b0395861617905560038054909116928416929092179091551660805262000140565b600080546001600160a01b038381166001600160a01b0319831681178455604051919092169283917f8be0079c531659141344cd1fd0a4f28419497f9722a3daafe3b4186f6b6457e09190a35050565b6001600160a01b0381168114620000e957600080fd5b50565b6000806000606084860312156200010257600080fd5b83516200010f81620000d3565b60208501519093506200012281620000d3565b60408501519092506200013581620000d3565b809150509250925092565b6080516115dc6200015c600039600061033301526115dc6000f3fe6080604052600436106100705760003560e01c80638da5cb5b1161004e5780638da5cb5b146100b4578063dda9a358146100eb578063e5a6b10f1461010d578063f2fde38b1461012b57600080fd5b806324600fc314610075578063715018a61461008c57806378c86aae146100a1575b600080fd5b34801561008157600080fd5b5061008a61014b565b005b34801561009857600080fd5b5061008a610263565b61008a6100af366004611221565b610297565b3480156100c057600080fd5b506000546001600160a01b03165b6040516001600160a01b0390911681526020015b60405180910390f35b3480156100f757600080fd5b50610100610418565b6040516100e29190611344565b34801561011957600080fd5b506002546001600160a01b03166100ce565b34801561013757600080fd5b5061008a6101463660046113d0565b6105a3565b6000546001600160a01b0316331461017e5760405162461bcd60e51b8152600401610175906113eb565b60405180910390fd5b6002546001600160a01b031673eeeeeeeeeeeeeeeeeeeeeeeeeeeeeeeeeeeeeeee14156101bd576001546101bb906001600160a01b0316476105f1565b565b6002546040516370a0823160e01b81523060048201526000916001600160a01b0316906370a082319060240160206040518083038186803b15801561020157600080fd5b505afa158015610215573d6000803e3d6000fd5b505050506040513d601f19601f820116820180604052508101906102399190611420565b9050801561026057600254600154610260916001600160a01b039081169130911684610699565b50565b6000546001600160a01b0316331461028d5760405162461bcd60e51b8152600401610175906113eb565b6101bb60006106fd565b6001600160a01b03831673eeeeeeeeeeeeeeeeeeeeeeeeeeeeeeeeeeeeeeee1415610315578134146103155760405162461bcd60e51b815260206004820152602160248201527f416d6f756e74206d757374206d61746368207468652076616c75652073656e746044820152601760f91b6064820152608401610175565b60025460035461035991849186916001600160a01b039081169130917f0000000000000000000000000000000000000000000000000000000000000000911661074d565b5060408051606081018252338152602080820184815282840186905260045460009081526005835293909320825181546001600160a01b0319166001600160a01b03909116178155925180519293926103b89260018501920190611156565b506040918201516002909101556004546000908152600560205281902090517fd9622d91f4e2a76ae529916077bbce1250a92d5a4e6433f0449407f25aeeeed8916104029161146e565b60405180910390a1505060048054600101905550565b6060600060045467ffffffffffffffff8111156104375761043761120b565b60405190808252806020026020018201604052801561049557816020015b610482604051806060016040528060006001600160a01b0316815260200160608152602001600081525090565b8152602001906001900390816104555790505b50905060005b60045481101561059d5760008181526005602090815260409182902082516060810190935280546001600160a01b0316835260018101805491928401916104e190611439565b80601f016020809104026020016040519081016040528092919081815260200182805461050d90611439565b801561055a5780601f1061052f5761010080835404028352916020019161055a565b820191906000526020600020905b81548152906001019060200180831161053d57829003601f168201915b5050505050815260200160028201548152505082828151811061057f5761057f61153f565b6020026020010181905250808061059590611555565b91505061049b565b50919050565b6000546001600160a01b031633146105cd5760405162461bcd60e51b8152600401610175906113eb565b600180546001600160a01b0319166001600160a01b0383161790556102608161095b565b6000826001600160a01b03168260405160006040518083038185875af1925050503d806000811461063e576040519150601f19603f3d011682016040523d82523d6000602084013e610643565b606091505b50509050806106945760405162461bcd60e51b815260206004820152601d60248201527f556e61626c6520746f2073656e642076616c756520746f20757365722e0000006044820152606401610175565b505050565b816001600160a01b0316836001600160a01b031614156106b8576106f7565b6001600160a01b0383163014156106e2576106dd6001600160a01b03851683836109f3565b6106f7565b6106f76001600160a01b038516848484610a56565b50505050565b600080546001600160a01b038381166001600160a01b0319831681178455604051919092169283917f8be0079c531659141344cd1fd0a4f28419497f9722a3daafe3b4186f6b6457e09190a35050565b60006001600160a01b0386811673eeeeeeeeeeeeeeeeeeeeeeeeeeeeeeeeeeeeeeee811491871614156107a457801561078f5761078a85896105f1565b61079b565b61079b8733878b610699565b87915050610951565b6001600160a01b03861673eeeeeeeeeeeeeeeeeeeeeeeeeeeeeeeeeeeeeeee148582156107d5576107d5858b610a8e565b81156107e2578497503096505b6107ee8933308d610b6a565b6107f989878c610c74565b60408051610100810182526001600160a01b03808c1682528a81166020830152610bb882840152898116606083015242608083015260a082018d9052600060c0830181905260e08301819052925163414bf38960e01b81529192919089169063414bf389906108d090859060040181516001600160a01b03908116825260208084015182169083015260408084015162ffffff16908301526060808401518216908301526080808401519083015260a0838101519083015260c0808401519083015260e09283015116918101919091526101000190565b602060405180830381600087803b1580156108ea57600080fd5b505af11580156108fe573d6000803e3d6000fd5b505050506040513d601f19601f820116820180604052508101906109229190611420565b905083801561093a57506001600160a01b0389163014155b1561094a5761094a878285610d74565b9450505050505b9695505050505050565b6000546001600160a01b031633146109855760405162461bcd60e51b8152600401610175906113eb565b6001600160a01b0381166109ea5760405162461bcd60e51b815260206004820152602660248201527f4f776e61626c653a206e6577206f776e657220697320746865207a65726f206160448201526564647265737360d01b6064820152608401610175565b610260816106fd565b6040516001600160a01b03831660248201526044810182905261069490849063a9059cbb60e01b906064015b60408051601f198184030181529190526020810180516001600160e01b03166001600160e01b031990931692909217909152610e53565b6040516001600160a01b03808516602483015283166044820152606481018290526106f79085906323b872dd60e01b90608401610a1f565b610a988282610f25565b60405163a9059cbb60e01b8152336004820152602481018290526000906001600160a01b0384169063a9059cbb90604401602060405180830381600087803b158015610ae357600080fd5b505af1158015610af7573d6000803e3d6000fd5b505050506040513d601f19601f82011682018060405250810190610b1b919061157e565b9050806106945760405162461bcd60e51b815260206004820181905260248201527f556e61626c6520746f207472616e73666572205745544820746f20757365722e6044820152606401610175565b604080516001600160a01b0385811660248301528481166044830152606480830185905283518084039091018152608490920183526020820180516001600160e01b03166323b872dd60e01b1790529151600092839290881691610bce91906115a0565b6000604051808303816000865af19150503d8060008114610c0b576040519150601f19603f3d011682016040523d82523d6000602084013e610c10565b606091505b5091509150818015610c3a575080511580610c3a575080806020019051810190610c3a919061157e565b610c6c5760405162461bcd60e51b815260206004820152600360248201526229aa2360e91b6044820152606401610175565b505050505050565b604080516001600160a01b038481166024830152604480830185905283518084039091018152606490920183526020820180516001600160e01b031663095ea7b360e01b1790529151600092839290871691610cd091906115a0565b6000604051808303816000865af19150503d8060008114610d0d576040519150601f19603f3d011682016040523d82523d6000602084013e610d12565b606091505b5091509150818015610d3c575080511580610d3c575080806020019051810190610d3c919061157e565b610d6d5760405162461bcd60e51b8152602060048201526002602482015261534160f01b6044820152606401610175565b5050505050565b610d7e8383610f7d565b60405163a9059cbb60e01b81526001600160a01b038281166004830152602482018490526000919085169063a9059cbb90604401602060405180830381600087803b158015610dcc57600080fd5b505af1158015610de0573d6000803e3d6000fd5b505050506040513d601f19601f82011682018060405250810190610e04919061157e565b9050806106f75760405162461bcd60e51b815260206004820181905260248201527f556e61626c6520746f207472616e73666572205745544820746f20757365722e6044820152606401610175565b6000610ea8826040518060400160405280602081526020017f5361666545524332303a206c6f772d6c6576656c2063616c6c206661696c6564815250856001600160a01b0316610fd39092919063ffffffff16565b8051909150156106945780806020019051810190610ec6919061157e565b6106945760405162461bcd60e51b815260206004820152602a60248201527f5361666545524332303a204552433230206f7065726174696f6e20646964206e6044820152691bdd081cdd58d8d9595960b21b6064820152608401610175565b816001600160a01b031663d0e30db0826040518263ffffffff1660e01b81526004016000604051808303818588803b158015610f6057600080fd5b505af1158015610f74573d6000803e3d6000fd5b50505050505050565b604051632e1a7d4d60e01b8152600481018290526001600160a01b03831690632e1a7d4d90602401600060405180830381600087803b158015610fbf57600080fd5b505af1158015610c6c573d6000803e3d6000fd5b6060610fe28484600085610fec565b90505b9392505050565b60608247101561104d5760405162461bcd60e51b815260206004820152602660248201527f416464726573733a20696e73756666696369656e742062616c616e636520666f6044820152651c8818d85b1b60d21b6064820152608401610175565b6001600160a01b0385163b6110a45760405162461bcd60e51b815260206004820152601d60248201527f416464726573733a2063616c6c20746f206e6f6e2d636f6e74726163740000006044820152606401610175565b600080866001600160a01b031685876040516110c091906115a0565b60006040518083038185875af1925050503d80600081146110fd576040519150601f19603f3d011682016040523d82523d6000602084013e611102565b606091505b509150915061111282828661111d565b979650505050505050565b6060831561112c575081610fe5565b82511561113c5782518084602001fd5b8160405162461bcd60e51b815260040161017591906115bc565b82805461116290611439565b90600052602060002090601f01602090048101928261118457600085556111ca565b82601f1061119d57805160ff19168380011785556111ca565b828001600101855582156111ca579182015b828111156111ca5782518255916020019190600101906111af565b506111d69291506111da565b5090565b5b808211156111d657600081556001016111db565b80356001600160a01b038116811461120657600080fd5b919050565b634e487b7160e01b600052604160045260246000fd5b60008060006060848603121561123657600080fd5b61123f846111ef565b925060208401359150604084013567ffffffffffffffff8082111561126357600080fd5b818601915086601f83011261127757600080fd5b8135818111156112895761128961120b565b604051601f8201601f19908116603f011681019083821181831017156112b1576112b161120b565b816040528281528960208487010111156112ca57600080fd5b8260208601602083013760006020848301015280955050505050509250925092565b60005b838110156113075781810151838201526020016112ef565b838111156106f75750506000910152565b600081518084526113308160208601602086016112ec565b601f01601f19169290920160200192915050565b60006020808301818452808551808352604092508286019150828160051b87010184880160005b838110156113c257888303603f19018552815180516001600160a01b03168452878101516060898601819052906113a482870182611318565b9289015195890195909552509487019492509086019060010161136b565b509098975050505050505050565b6000602082840312156113e257600080fd5b610fe5826111ef565b6020808252818101527f4f776e61626c653a2063616c6c6572206973206e6f7420746865206f776e6572604082015260600190565b60006020828403121561143257600080fd5b5051919050565b600181811c9082168061144d57607f821691505b6020821081141561059d57634e487b7160e01b600052602260045260246000fd5b602080825282546001600160a01b0316828201526060604083015260018381018054600093929190849080841c818516806114aa57607f821691505b8682108114156114c857634e487b7160e01b84526022600452602484fd5b6080890182905260a089018180156114e757600181146114f857611523565b60ff19851682528882019550611523565b60008781526020902060005b8581101561151d57815484820152908901908a01611504565b83019650505b5050505050600287015460608701528094505050505092915050565b634e487b7160e01b600052603260045260246000fd5b600060001982141561157757634e487b7160e01b600052601160045260246000fd5b5060010190565b60006020828403121561159057600080fd5b81518015158114610fe557600080fd5b600082516115b28184602087016112ec565b9190910192915050565b602081526000610fe5602083018461131856fea164736f6c6343000809000a",
  "linkReferences": {},
  "deployedLinkReferences": {}
}