{
  "_format": "hh-sol-artifact-1",
  "contractName": "AnyFunder",
  "sourceName": "contracts/core/AnyFunder.sol",
  "abi": [
    {
      "inputs": [
        {
          "internalType": "address",
          "name": "paymentReceiver",
          "type": "address"
        },
        {
          "internalType": "address",
          "name": "currency_",
          "type": "address"
        },
        {
          "internalType": "address",
          "name": "wrappedToken",
          "type": "address"
        },
        {
          "internalType": "contract ISwapRouter",
          "name": "swapRouter",
          "type": "address"
        }
      ],
      "stateMutability": "nonpayable",
      "type": "constructor"
    },
    {
      "anonymous": false,
      "inputs": [
        {
          "indexed": true,
          "internalType": "address",
          "name": "previousOwner",
          "type": "address"
        },
        {
          "indexed": true,
          "internalType": "address",
          "name": "newOwner",
          "type": "address"
        }
      ],
      "name": "OwnershipTransferred",
      "type": "event"
    },
    {
      "anonymous": false,
      "inputs": [
        {
          "components": [
            {
              "internalType": "address",
              "name": "from",
              "type": "address"
            },
            {
              "internalType": "string",
              "name": "message",
              "type": "string"
            },
            {
              "internalType": "uint256",
              "name": "amount",
              "type": "uint256"
            },
            {
              "internalType": "uint256",
              "name": "timestamp",
              "type": "uint256"
            }
          ],
          "indexed": false,
          "internalType": "struct AnyFunder.Payment",
          "name": "payment",
          "type": "tuple"
        }
      ],
      "name": "PaymentDone",
      "type": "event"
    },
    {
      "inputs": [],
      "name": "currency",
      "outputs": [
        {
          "internalType": "address",
          "name": "",
          "type": "address"
        }
      ],
      "stateMutability": "view",
      "type": "function"
    },
    {
      "inputs": [],
      "name": "owner",
      "outputs": [
        {
          "internalType": "address",
          "name": "",
          "type": "address"
        }
      ],
      "stateMutability": "view",
      "type": "function"
    },
    {
      "inputs": [
        {
          "internalType": "address",
          "name": "userCurrency",
          "type": "address"
        },
        {
          "internalType": "uint256",
          "name": "amount",
          "type": "uint256"
        },
        {
          "internalType": "string",
          "name": "message",
          "type": "string"
        }
      ],
      "name": "pay",
      "outputs": [],
      "stateMutability": "payable",
      "type": "function"
    },
    {
      "inputs": [],
      "name": "paymentsHistory",
      "outputs": [
        {
          "components": [
            {
              "internalType": "address",
              "name": "from",
              "type": "address"
            },
            {
              "internalType": "string",
              "name": "message",
              "type": "string"
            },
            {
              "internalType": "uint256",
              "name": "amount",
              "type": "uint256"
            },
            {
              "internalType": "uint256",
              "name": "timestamp",
              "type": "uint256"
            }
          ],
          "internalType": "struct AnyFunder.Payment[]",
          "name": "",
          "type": "tuple[]"
        }
      ],
      "stateMutability": "view",
      "type": "function"
    },
    {
      "inputs": [],
      "name": "renounceOwnership",
      "outputs": [],
      "stateMutability": "nonpayable",
      "type": "function"
    },
    {
      "inputs": [],
      "name": "totalPaymentReceived",
      "outputs": [
        {
          "internalType": "uint256",
          "name": "",
          "type": "uint256"
        }
      ],
      "stateMutability": "view",
      "type": "function"
    },
    {
      "inputs": [
        {
          "internalType": "address",
          "name": "newOwner",
          "type": "address"
        }
      ],
      "name": "transferOwnership",
      "outputs": [],
      "stateMutability": "nonpayable",
      "type": "function"
    },
    {
      "inputs": [],
      "name": "withdrawFunds",
      "outputs": [],
      "stateMutability": "nonpayable",
      "type": "function"
    }
  ],
  "bytecode": "0x60a06040523480156200001157600080fd5b506040516200179738038062001797833981016040819052620000349162000130565b6200003f33620000c7565b6001600160a01b0384166200006657600280546001600160a01b0319163317905562000082565b600280546001600160a01b0319166001600160a01b0386161790555b60018054336001600160a01b0319918216179091556003805482166001600160a01b039586161790556004805490911692841692909217909155166080525062000198565b600080546001600160a01b038381166001600160a01b0319831681178455604051919092169283917f8be0079c531659141344cd1fd0a4f28419497f9722a3daafe3b4186f6b6457e09190a35050565b6001600160a01b03811681146200012d57600080fd5b50565b600080600080608085870312156200014757600080fd5b8451620001548162000117565b6020860151909450620001678162000117565b60408601519093506200017a8162000117565b60608601519092506200018d8162000117565b939692955090935050565b6080516115e3620001b4600039600061033801526115e36000f3fe60806040526004361061007b5760003560e01c80638da5cb5b1161004e5780638da5cb5b146100e7578063dda9a35814610119578063e5a6b10f1461013b578063f2fde38b1461015957600080fd5b806324600fc31461008057806348faade4146100975780634a4bdb30146100bf578063715018a6146100d2575b600080fd5b34801561008c57600080fd5b50610095610179565b005b3480156100a357600080fd5b506100ac610257565b6040519081526020015b60405180910390f35b6100956100cd3660046111f4565b610292565b3480156100de57600080fd5b5061009561042e565b3480156100f357600080fd5b506000546001600160a01b03165b6040516001600160a01b0390911681526020016100b6565b34801561012557600080fd5b5061012e610440565b6040516100b69190611317565b34801561014757600080fd5b506003546001600160a01b0316610101565b34801561016557600080fd5b506100956101743660046113ad565b6105cb565b6101816105f7565b6003546001600160a01b031673eeeeeeeeeeeeeeeeeeeeeeeeeeeeeeeeeeeeeeee14156101c0576002546101be906001600160a01b031647610651565b565b6003546040516370a0823160e01b81523060048201526000916001600160a01b0316906370a0823190602401602060405180830381865afa158015610209573d6000803e3d6000fd5b505050506040513d601f19601f8201168201806040525081019061022d91906113cf565b9050801561025457600354600254610254916001600160a01b039081169130911684610711565b50565b600080805b60055481101561028c5760008181526006602052604090206002015461028290836113e8565b915060010161025c565b50919050565b6001600160a01b03831673eeeeeeeeeeeeeeeeeeeeeeeeeeeeeeeeeeeeeeee141561031a5781341461031a5760405162461bcd60e51b815260206004820152602660248201527f416e7946756e6465723a20416d6f756e74206d757374206d61746368206d73676044820152652e76616c756560d01b60648201526084015b60405180910390fd5b60035460045461035e91849186916001600160a01b039081169130917f00000000000000000000000000000000000000000000000000000000000000009116610775565b5060408051608081018252338152602080820184815282840186905242606084015260055460009081526006835293909320825181546001600160a01b0319166001600160a01b03909116178155925180519293926103c39260018501920190611129565b5060408281015160028301556060909201516003909101556005546000908152600660205281902090517fca625f834bb739e49ab4b3ac739f2ab63d97121038dd50589d5fcf78a08ac6749161041891611443565b60405180910390a1505060058054600101905550565b6104366105f7565b6101be6000610974565b6060600060055467ffffffffffffffff81111561045f5761045f6111de565b6040519080825280602002602001820160405280156104c457816020015b6104b1604051806080016040528060006001600160a01b031681526020016060815260200160008152602001600081525090565b81526020019060019003908161047d5790505b50905060005b60055481101561028c5760008181526006602090815260409182902082516080810190935280546001600160a01b0316835260018101805491928401916105109061140e565b80601f016020809104026020016040519081016040528092919081815260200182805461053c9061140e565b80156105895780601f1061055e57610100808354040283529160200191610589565b820191906000526020600020905b81548152906001019060200180831161056c57829003601f168201915b50505050508152602001600282015481526020016003820154815250508282815181106105b8576105b861151e565b60209081029190910101526001016104ca565b6105d36105f7565b600180546001600160a01b0319166001600160a01b038316179055610254816109c4565b6000546001600160a01b031633146101be5760405162461bcd60e51b815260206004820181905260248201527f4f776e61626c653a2063616c6c6572206973206e6f7420746865206f776e65726044820152606401610311565b6000826001600160a01b03168260405160006040518083038185875af1925050503d806000811461069e576040519150601f19603f3d011682016040523d82523d6000602084013e6106a3565b606091505b505090508061070c5760405162461bcd60e51b815260206004820152602f60248201527f43757272656e63795472616e736665723a20556e61626c6520746f2073656e6460448201526e103b30b63ab2903a37903ab9b2b91760891b6064820152608401610311565b505050565b816001600160a01b0316836001600160a01b031614156107305761076f565b6001600160a01b03831630141561075a576107556001600160a01b0385168383610a3a565b61076f565b61076f6001600160a01b038516848484610a9d565b50505050565b60006001600160a01b0386811673eeeeeeeeeeeeeeeeeeeeeeeeeeeeeeeeeeeeeeee811491871614156107cc5780156107b7576107b28589610651565b6107c3565b6107c38733878b610711565b8791505061096a565b6001600160a01b03861673eeeeeeeeeeeeeeeeeeeeeeeeeeeeeeeeeeeeeeee148582156107fd576107fd858b610ad5565b811561080a578497503096505b6108168933308d610b72565b61082189878c610c7c565b60408051610100810182526001600160a01b03808c1682528a81166020830152610bb882840152898116606083015242608083015260a082018d9052600060c0830181905260e08301819052925163414bf38960e01b81529192919089169063414bf389906108f890859060040181516001600160a01b03908116825260208084015182169083015260408084015162ffffff16908301526060808401518216908301526080808401519083015260a0838101519083015260c0808401519083015260e09283015116918101919091526101000190565b6020604051808303816000875af1158015610917573d6000803e3d6000fd5b505050506040513d601f19601f8201168201806040525081019061093b91906113cf565b905083801561095357506001600160a01b0389163014155b1561096357610963878285610d7c565b9450505050505b9695505050505050565b600080546001600160a01b038381166001600160a01b0319831681178455604051919092169283917f8be0079c531659141344cd1fd0a4f28419497f9722a3daafe3b4186f6b6457e09190a35050565b6109cc6105f7565b6001600160a01b038116610a315760405162461bcd60e51b815260206004820152602660248201527f4f776e61626c653a206e6577206f776e657220697320746865207a65726f206160448201526564647265737360d01b6064820152608401610311565b61025481610974565b6040516001600160a01b03831660248201526044810182905261070c90849063a9059cbb60e01b906064015b60408051601f198184030181529190526020810180516001600160e01b03166001600160e01b031990931692909217909152610e1c565b6040516001600160a01b038085166024830152831660448201526064810182905261076f9085906323b872dd60e01b90608401610a66565b610adf8282610eee565b60405163a9059cbb60e01b8152336004820152602481018290526000906001600160a01b0384169063a9059cbb906044016020604051808303816000875af1158015610b2f573d6000803e3d6000fd5b505050506040513d601f19601f82011682018060405250810190610b539190611534565b90508061070c5760405162461bcd60e51b815260040161031190611556565b604080516001600160a01b0385811660248301528481166044830152606480830185905283518084039091018152608490920183526020820180516001600160e01b03166323b872dd60e01b1790529151600092839290881691610bd691906115a7565b6000604051808303816000865af19150503d8060008114610c13576040519150601f19603f3d011682016040523d82523d6000602084013e610c18565b606091505b5091509150818015610c42575080511580610c42575080806020019051810190610c429190611534565b610c745760405162461bcd60e51b815260206004820152600360248201526229aa2360e91b6044820152606401610311565b505050505050565b604080516001600160a01b038481166024830152604480830185905283518084039091018152606490920183526020820180516001600160e01b031663095ea7b360e01b1790529151600092839290871691610cd891906115a7565b6000604051808303816000865af19150503d8060008114610d15576040519150601f19603f3d011682016040523d82523d6000602084013e610d1a565b606091505b5091509150818015610d44575080511580610d44575080806020019051810190610d449190611534565b610d755760405162461bcd60e51b8152602060048201526002602482015261534160f01b6044820152606401610311565b5050505050565b610d868383610f46565b60405163a9059cbb60e01b81526001600160a01b038281166004830152602482018490526000919085169063a9059cbb906044016020604051808303816000875af1158015610dd9573d6000803e3d6000fd5b505050506040513d601f19601f82011682018060405250810190610dfd9190611534565b90508061076f5760405162461bcd60e51b815260040161031190611556565b6000610e71826040518060400160405280602081526020017f5361666545524332303a206c6f772d6c6576656c2063616c6c206661696c6564815250856001600160a01b0316610f9c9092919063ffffffff16565b80519091501561070c5780806020019051810190610e8f9190611534565b61070c5760405162461bcd60e51b815260206004820152602a60248201527f5361666545524332303a204552433230206f7065726174696f6e20646964206e6044820152691bdd081cdd58d8d9595960b21b6064820152608401610311565b816001600160a01b031663d0e30db0826040518263ffffffff1660e01b81526004016000604051808303818588803b158015610f2957600080fd5b505af1158015610f3d573d6000803e3d6000fd5b50505050505050565b604051632e1a7d4d60e01b8152600481018290526001600160a01b03831690632e1a7d4d90602401600060405180830381600087803b158015610f8857600080fd5b505af1158015610c74573d6000803e3d6000fd5b6060610fab8484600085610fb3565b949350505050565b6060824710156110145760405162461bcd60e51b815260206004820152602660248201527f416464726573733a20696e73756666696369656e742062616c616e636520666f6044820152651c8818d85b1b60d21b6064820152608401610311565b600080866001600160a01b0316858760405161103091906115a7565b60006040518083038185875af1925050503d806000811461106d576040519150601f19603f3d011682016040523d82523d6000602084013e611072565b606091505b50915091506110838783838761108e565b979650505050505050565b606083156110fa5782516110f3576001600160a01b0385163b6110f35760405162461bcd60e51b815260206004820152601d60248201527f416464726573733a2063616c6c20746f206e6f6e2d636f6e74726163740000006044820152606401610311565b5081610fab565b610fab838381511561110f5781518083602001fd5b8060405162461bcd60e51b815260040161031191906115c3565b8280546111359061140e565b90600052602060002090601f016020900481019282611157576000855561119d565b82601f1061117057805160ff191683800117855561119d565b8280016001018555821561119d579182015b8281111561119d578251825591602001919060010190611182565b506111a99291506111ad565b5090565b5b808211156111a957600081556001016111ae565b80356001600160a01b03811681146111d957600080fd5b919050565b634e487b7160e01b600052604160045260246000fd5b60008060006060848603121561120957600080fd5b611212846111c2565b925060208401359150604084013567ffffffffffffffff8082111561123657600080fd5b818601915086601f83011261124a57600080fd5b81358181111561125c5761125c6111de565b604051601f8201601f19908116603f01168101908382118183101715611284576112846111de565b8160405282815289602084870101111561129d57600080fd5b8260208601602083013760006020848301015280955050505050509250925092565b60005b838110156112da5781810151838201526020016112c2565b8381111561076f5750506000910152565b600081518084526113038160208601602086016112bf565b601f01601f19169290920160200192915050565b60006020808301818452808551808352604092508286019150828160051b87010184880160005b8381101561139f57888303603f19018552815180516001600160a01b0316845287810151608089860181905290611377828701826112eb565b838a0151878b015260609384015193909601929092525050938601939086019060010161133e565b509098975050505050505050565b6000602082840312156113bf57600080fd5b6113c8826111c2565b9392505050565b6000602082840312156113e157600080fd5b5051919050565b6000821982111561140957634e487b7160e01b600052601160045260246000fd5b500190565b600181811c9082168061142257607f821691505b6020821081141561028c57634e487b7160e01b600052602260045260246000fd5b602080825282546001600160a01b0316828201526080604083015260018381018054600093929190849080841c8185168061147f57607f821691505b86821081141561149d57634e487b7160e01b84526022600452602484fd5b60a0890182905260c089018180156114bc57600181146114cd576114f8565b60ff198516825288820195506114f8565b60008781526020902060005b858110156114f257815484820152908901908a016114d9565b83019650505b505050505060028701546060870152600387015460808701528094505050505092915050565b634e487b7160e01b600052603260045260246000fd5b60006020828403121561154657600080fd5b815180151581146113c857600080fd5b60208082526031908201527f43757272656e6379577261707065723a20556e61626c6520746f207472616e736040820152703332b9102ba2aa24103a37903ab9b2b91760791b606082015260800190565b600082516115b98184602087016112bf565b9190910192915050565b6020815260006113c860208301846112eb56fea164736f6c634300080a000a",
  "linkReferences": {},
  "deployedLinkReferences": {}
}