{
  "_format": "hh-sol-artifact-1",
  "contractName": "AnyFunder",
  "sourceName": "contracts/core/AnyFunder.sol",
  "abi": [
    {
      "inputs": [
        {
          "internalType": "address",
          "name": "currency_",
          "type": "address"
        },
        {
          "internalType": "address",
          "name": "wrappedToken",
          "type": "address"
        },
        {
          "internalType": "contract ISwapRouter",
          "name": "swapRouter",
          "type": "address"
        }
      ],
      "stateMutability": "nonpayable",
      "type": "constructor"
    },
    {
      "anonymous": false,
      "inputs": [
        {
          "indexed": true,
          "internalType": "address",
          "name": "previousOwner",
          "type": "address"
        },
        {
          "indexed": true,
          "internalType": "address",
          "name": "newOwner",
          "type": "address"
        }
      ],
      "name": "OwnershipTransferred",
      "type": "event"
    },
    {
      "anonymous": false,
      "inputs": [
        {
          "components": [
            {
              "internalType": "address",
              "name": "from",
              "type": "address"
            },
            {
              "internalType": "string",
              "name": "message",
              "type": "string"
            },
            {
              "internalType": "uint256",
              "name": "amount",
              "type": "uint256"
            },
            {
              "internalType": "uint256",
              "name": "timestamp",
              "type": "uint256"
            }
          ],
          "indexed": false,
          "internalType": "struct AnyFunder.Payment",
          "name": "payment",
          "type": "tuple"
        }
      ],
      "name": "PaymentMade",
      "type": "event"
    },
    {
      "inputs": [],
      "name": "currency",
      "outputs": [
        {
          "internalType": "address",
          "name": "",
          "type": "address"
        }
      ],
      "stateMutability": "view",
      "type": "function"
    },
    {
      "inputs": [],
      "name": "owner",
      "outputs": [
        {
          "internalType": "address",
          "name": "",
          "type": "address"
        }
      ],
      "stateMutability": "view",
      "type": "function"
    },
    {
      "inputs": [
        {
          "internalType": "address",
          "name": "userCurrency",
          "type": "address"
        },
        {
          "internalType": "uint256",
          "name": "amount",
          "type": "uint256"
        },
        {
          "internalType": "string",
          "name": "message",
          "type": "string"
        }
      ],
      "name": "pay",
      "outputs": [],
      "stateMutability": "payable",
      "type": "function"
    },
    {
      "inputs": [],
      "name": "paymentsHistory",
      "outputs": [
        {
          "components": [
            {
              "internalType": "address",
              "name": "from",
              "type": "address"
            },
            {
              "internalType": "string",
              "name": "message",
              "type": "string"
            },
            {
              "internalType": "uint256",
              "name": "amount",
              "type": "uint256"
            },
            {
              "internalType": "uint256",
              "name": "timestamp",
              "type": "uint256"
            }
          ],
          "internalType": "struct AnyFunder.Payment[]",
          "name": "",
          "type": "tuple[]"
        }
      ],
      "stateMutability": "view",
      "type": "function"
    },
    {
      "inputs": [],
      "name": "renounceOwnership",
      "outputs": [],
      "stateMutability": "nonpayable",
      "type": "function"
    },
    {
      "inputs": [],
      "name": "totalEarnings",
      "outputs": [
        {
          "internalType": "uint256",
          "name": "",
          "type": "uint256"
        }
      ],
      "stateMutability": "view",
      "type": "function"
    },
    {
      "inputs": [
        {
          "internalType": "address",
          "name": "newOwner",
          "type": "address"
        }
      ],
      "name": "transferOwnership",
      "outputs": [],
      "stateMutability": "nonpayable",
      "type": "function"
    },
    {
      "inputs": [],
      "name": "withdrawFunds",
      "outputs": [],
      "stateMutability": "nonpayable",
      "type": "function"
    }
  ],
  "bytecode": "0x60a06040523480156200001157600080fd5b50604051620017d3380380620017d38339810160408190526200003491620000ec565b6200003f3362000083565b60018054336001600160a01b0319918216179091556002805482166001600160a01b0395861617905560038054909116928416929092179091551660805262000140565b600080546001600160a01b038381166001600160a01b0319831681178455604051919092169283917f8be0079c531659141344cd1fd0a4f28419497f9722a3daafe3b4186f6b6457e09190a35050565b6001600160a01b0381168114620000e957600080fd5b50565b6000806000606084860312156200010257600080fd5b83516200010f81620000d3565b60208501519093506200012281620000d3565b60408501519092506200013581620000d3565b809150509250925092565b6080516116776200015c600039600061036f01526116776000f3fe60806040526004361061007b5760003560e01c80638da5cb5b1161004e5780638da5cb5b146100e7578063dda9a35814610119578063e5a6b10f1461013b578063f2fde38b1461015957600080fd5b806324600fc3146100805780632df3eba4146100975780634a4bdb30146100bf578063715018a6146100d2575b600080fd5b34801561008c57600080fd5b50610095610179565b005b3480156100a357600080fd5b506100ac610291565b6040519081526020015b60405180910390f35b6100956100cd36600461125a565b6102cc565b3480156100de57600080fd5b50610095610465565b3480156100f357600080fd5b506000546001600160a01b03165b6040516001600160a01b0390911681526020016100b6565b34801561012557600080fd5b5061012e610499565b6040516100b6919061137d565b34801561014757600080fd5b506002546001600160a01b0316610101565b34801561016557600080fd5b50610095610174366004611413565b610624565b6000546001600160a01b031633146101ac5760405162461bcd60e51b81526004016101a39061142e565b60405180910390fd5b6002546001600160a01b031673eeeeeeeeeeeeeeeeeeeeeeeeeeeeeeeeeeeeeeee14156101eb576001546101e9906001600160a01b031647610672565b565b6002546040516370a0823160e01b81523060048201526000916001600160a01b0316906370a082319060240160206040518083038186803b15801561022f57600080fd5b505afa158015610243573d6000803e3d6000fd5b505050506040513d601f19601f820116820180604052508101906102679190611463565b9050801561028e5760025460015461028e916001600160a01b039081169130911684610732565b50565b600080805b6004548110156102c6576000818152600560205260409020600201546102bc908361147c565b9150600101610296565b50919050565b6001600160a01b03831673eeeeeeeeeeeeeeeeeeeeeeeeeeeeeeeeeeeeeeee1415610351578134146103515760405162461bcd60e51b815260206004820152602860248201527f416e7946756e6465723a20416d6f756e74206d757374206d617463682076616c6044820152673ab29039b2b73a1760c11b60648201526084016101a3565b60025460035461039591849186916001600160a01b039081169130917f00000000000000000000000000000000000000000000000000000000000000009116610796565b5060408051608081018252338152602080820184815282840186905242606084015260045460009081526005835293909320825181546001600160a01b0319166001600160a01b03909116178155925180519293926103fa926001850192019061118f565b5060408281015160028301556060909201516003909101556004546000908152600560205281902090517f5bfca26e94909cebbcb074b7bec33c5dec65d8abd3de139321f330f9d079b3cb9161044f916114d7565b60405180910390a1505060048054600101905550565b6000546001600160a01b0316331461048f5760405162461bcd60e51b81526004016101a39061142e565b6101e960006109a4565b6060600060045467ffffffffffffffff8111156104b8576104b8611244565b60405190808252806020026020018201604052801561051d57816020015b61050a604051806080016040528060006001600160a01b031681526020016060815260200160008152602001600081525090565b8152602001906001900390816104d65790505b50905060005b6004548110156102c65760008181526005602090815260409182902082516080810190935280546001600160a01b031683526001810180549192840191610569906114a2565b80601f0160208091040260200160405190810160405280929190818152602001828054610595906114a2565b80156105e25780601f106105b7576101008083540402835291602001916105e2565b820191906000526020600020905b8154815290600101906020018083116105c557829003601f168201915b5050505050815260200160028201548152602001600382015481525050828281518110610611576106116115b2565b6020908102919091010152600101610523565b6000546001600160a01b0316331461064e5760405162461bcd60e51b81526004016101a39061142e565b600180546001600160a01b0319166001600160a01b03831617905561028e816109f4565b6000826001600160a01b03168260405160006040518083038185875af1925050503d80600081146106bf576040519150601f19603f3d011682016040523d82523d6000602084013e6106c4565b606091505b505090508061072d5760405162461bcd60e51b815260206004820152602f60248201527f43757272656e63795472616e736665723a20556e61626c6520746f2073656e6460448201526e103b30b63ab2903a37903ab9b2b91760891b60648201526084016101a3565b505050565b816001600160a01b0316836001600160a01b0316141561075157610790565b6001600160a01b03831630141561077b576107766001600160a01b0385168383610a8c565b610790565b6107906001600160a01b038516848484610aef565b50505050565b60006001600160a01b0386811673eeeeeeeeeeeeeeeeeeeeeeeeeeeeeeeeeeeeeeee811491871614156107ed5780156107d8576107d38589610672565b6107e4565b6107e48733878b610732565b8791505061099a565b6001600160a01b03861673eeeeeeeeeeeeeeeeeeeeeeeeeeeeeeeeeeeeeeee1485821561081e5761081e858b610b27565b811561082b578497503096505b6108378933308d610bd3565b61084289878c610cdd565b60408051610100810182526001600160a01b03808c1682528a81166020830152610bb882840152898116606083015242608083015260a082018d9052600060c0830181905260e08301819052925163414bf38960e01b81529192919089169063414bf3899061091990859060040181516001600160a01b03908116825260208084015182169083015260408084015162ffffff16908301526060808401518216908301526080808401519083015260a0838101519083015260c0808401519083015260e09283015116918101919091526101000190565b602060405180830381600087803b15801561093357600080fd5b505af1158015610947573d6000803e3d6000fd5b505050506040513d601f19601f8201168201806040525081019061096b9190611463565b905083801561098357506001600160a01b0389163014155b1561099357610993878285610ddd565b9450505050505b9695505050505050565b600080546001600160a01b038381166001600160a01b0319831681178455604051919092169283917f8be0079c531659141344cd1fd0a4f28419497f9722a3daafe3b4186f6b6457e09190a35050565b6000546001600160a01b03163314610a1e5760405162461bcd60e51b81526004016101a39061142e565b6001600160a01b038116610a835760405162461bcd60e51b815260206004820152602660248201527f4f776e61626c653a206e6577206f776e657220697320746865207a65726f206160448201526564647265737360d01b60648201526084016101a3565b61028e816109a4565b6040516001600160a01b03831660248201526044810182905261072d90849063a9059cbb60e01b906064015b60408051601f198184030181529190526020810180516001600160e01b03166001600160e01b031990931692909217909152610e8c565b6040516001600160a01b03808516602483015283166044820152606481018290526107909085906323b872dd60e01b90608401610ab8565b610b318282610f5e565b60405163a9059cbb60e01b8152336004820152602481018290526000906001600160a01b0384169063a9059cbb90604401602060405180830381600087803b158015610b7c57600080fd5b505af1158015610b90573d6000803e3d6000fd5b505050506040513d601f19601f82011682018060405250810190610bb491906115c8565b90508061072d5760405162461bcd60e51b81526004016101a3906115ea565b604080516001600160a01b0385811660248301528481166044830152606480830185905283518084039091018152608490920183526020820180516001600160e01b03166323b872dd60e01b1790529151600092839290881691610c37919061163b565b6000604051808303816000865af19150503d8060008114610c74576040519150601f19603f3d011682016040523d82523d6000602084013e610c79565b606091505b5091509150818015610ca3575080511580610ca3575080806020019051810190610ca391906115c8565b610cd55760405162461bcd60e51b815260206004820152600360248201526229aa2360e91b60448201526064016101a3565b505050505050565b604080516001600160a01b038481166024830152604480830185905283518084039091018152606490920183526020820180516001600160e01b031663095ea7b360e01b1790529151600092839290871691610d39919061163b565b6000604051808303816000865af19150503d8060008114610d76576040519150601f19603f3d011682016040523d82523d6000602084013e610d7b565b606091505b5091509150818015610da5575080511580610da5575080806020019051810190610da591906115c8565b610dd65760405162461bcd60e51b8152602060048201526002602482015261534160f01b60448201526064016101a3565b5050505050565b610de78383610fb6565b60405163a9059cbb60e01b81526001600160a01b038281166004830152602482018490526000919085169063a9059cbb90604401602060405180830381600087803b158015610e3557600080fd5b505af1158015610e49573d6000803e3d6000fd5b505050506040513d601f19601f82011682018060405250810190610e6d91906115c8565b9050806107905760405162461bcd60e51b81526004016101a3906115ea565b6000610ee1826040518060400160405280602081526020017f5361666545524332303a206c6f772d6c6576656c2063616c6c206661696c6564815250856001600160a01b031661100c9092919063ffffffff16565b80519091501561072d5780806020019051810190610eff91906115c8565b61072d5760405162461bcd60e51b815260206004820152602a60248201527f5361666545524332303a204552433230206f7065726174696f6e20646964206e6044820152691bdd081cdd58d8d9595960b21b60648201526084016101a3565b816001600160a01b031663d0e30db0826040518263ffffffff1660e01b81526004016000604051808303818588803b158015610f9957600080fd5b505af1158015610fad573d6000803e3d6000fd5b50505050505050565b604051632e1a7d4d60e01b8152600481018290526001600160a01b03831690632e1a7d4d90602401600060405180830381600087803b158015610ff857600080fd5b505af1158015610cd5573d6000803e3d6000fd5b606061101b8484600085611025565b90505b9392505050565b6060824710156110865760405162461bcd60e51b815260206004820152602660248201527f416464726573733a20696e73756666696369656e742062616c616e636520666f6044820152651c8818d85b1b60d21b60648201526084016101a3565b6001600160a01b0385163b6110dd5760405162461bcd60e51b815260206004820152601d60248201527f416464726573733a2063616c6c20746f206e6f6e2d636f6e747261637400000060448201526064016101a3565b600080866001600160a01b031685876040516110f9919061163b565b60006040518083038185875af1925050503d8060008114611136576040519150601f19603f3d011682016040523d82523d6000602084013e61113b565b606091505b509150915061114b828286611156565b979650505050505050565b6060831561116557508161101e565b8251156111755782518084602001fd5b8160405162461bcd60e51b81526004016101a39190611657565b82805461119b906114a2565b90600052602060002090601f0160209004810192826111bd5760008555611203565b82601f106111d657805160ff1916838001178555611203565b82800160010185558215611203579182015b828111156112035782518255916020019190600101906111e8565b5061120f929150611213565b5090565b5b8082111561120f5760008155600101611214565b80356001600160a01b038116811461123f57600080fd5b919050565b634e487b7160e01b600052604160045260246000fd5b60008060006060848603121561126f57600080fd5b61127884611228565b925060208401359150604084013567ffffffffffffffff8082111561129c57600080fd5b818601915086601f8301126112b057600080fd5b8135818111156112c2576112c2611244565b604051601f8201601f19908116603f011681019083821181831017156112ea576112ea611244565b8160405282815289602084870101111561130357600080fd5b8260208601602083013760006020848301015280955050505050509250925092565b60005b83811015611340578181015183820152602001611328565b838111156107905750506000910152565b60008151808452611369816020860160208601611325565b601f01601f19169290920160200192915050565b60006020808301818452808551808352604092508286019150828160051b87010184880160005b8381101561140557888303603f19018552815180516001600160a01b03168452878101516080898601819052906113dd82870182611351565b838a0151878b01526060938401519390960192909252505093860193908601906001016113a4565b509098975050505050505050565b60006020828403121561142557600080fd5b61101e82611228565b6020808252818101527f4f776e61626c653a2063616c6c6572206973206e6f7420746865206f776e6572604082015260600190565b60006020828403121561147557600080fd5b5051919050565b6000821982111561149d57634e487b7160e01b600052601160045260246000fd5b500190565b600181811c908216806114b657607f821691505b602082108114156102c657634e487b7160e01b600052602260045260246000fd5b602080825282546001600160a01b0316828201526080604083015260018381018054600093929190849080841c8185168061151357607f821691505b86821081141561153157634e487b7160e01b84526022600452602484fd5b60a0890182905260c0890181801561155057600181146115615761158c565b60ff1985168252888201955061158c565b60008781526020902060005b8581101561158657815484820152908901908a0161156d565b83019650505b505050505060028701546060870152600387015460808701528094505050505092915050565b634e487b7160e01b600052603260045260246000fd5b6000602082840312156115da57600080fd5b8151801515811461101e57600080fd5b60208082526031908201527f43757272656e6379577261707065723a20556e61626c6520746f207472616e736040820152703332b9102ba2aa24103a37903ab9b2b91760791b606082015260800190565b6000825161164d818460208701611325565b9190910192915050565b60208152600061101e602083018461135156fea164736f6c6343000809000a",
  "linkReferences": {},
  "deployedLinkReferences": {}
}