{
  "_format": "hh-sol-artifact-1",
  "contractName": "AppRegistry",
  "sourceName": "contracts/AppRegistry.sol",
  "abi": [
    {
      "inputs": [],
      "stateMutability": "nonpayable",
      "type": "constructor"
    },
    {
      "anonymous": false,
      "inputs": [
        {
          "indexed": true,
          "internalType": "bytes32",
          "name": "role",
          "type": "bytes32"
        },
        {
          "indexed": true,
          "internalType": "bytes32",
          "name": "previousAdminRole",
          "type": "bytes32"
        },
        {
          "indexed": true,
          "internalType": "bytes32",
          "name": "newAdminRole",
          "type": "bytes32"
        }
      ],
      "name": "RoleAdminChanged",
      "type": "event"
    },
    {
      "anonymous": false,
      "inputs": [
        {
          "indexed": true,
          "internalType": "bytes32",
          "name": "role",
          "type": "bytes32"
        },
        {
          "indexed": true,
          "internalType": "address",
          "name": "account",
          "type": "address"
        },
        {
          "indexed": true,
          "internalType": "address",
          "name": "sender",
          "type": "address"
        }
      ],
      "name": "RoleGranted",
      "type": "event"
    },
    {
      "anonymous": false,
      "inputs": [
        {
          "indexed": true,
          "internalType": "bytes32",
          "name": "role",
          "type": "bytes32"
        },
        {
          "indexed": true,
          "internalType": "address",
          "name": "account",
          "type": "address"
        },
        {
          "indexed": true,
          "internalType": "address",
          "name": "sender",
          "type": "address"
        }
      ],
      "name": "RoleRevoked",
      "type": "event"
    },
    {
      "inputs": [],
      "name": "DEFAULT_ADMIN_ROLE",
      "outputs": [
        {
          "internalType": "bytes32",
          "name": "",
          "type": "bytes32"
        }
      ],
      "stateMutability": "view",
      "type": "function"
    },
    {
      "inputs": [],
      "name": "OPERATOR_ROLE",
      "outputs": [
        {
          "internalType": "bytes32",
          "name": "",
          "type": "bytes32"
        }
      ],
      "stateMutability": "view",
      "type": "function"
    },
    {
      "inputs": [
        {
          "internalType": "address",
          "name": "user",
          "type": "address"
        },
        {
          "internalType": "address",
          "name": "deployment",
          "type": "address"
        }
      ],
      "name": "add",
      "outputs": [],
      "stateMutability": "nonpayable",
      "type": "function"
    },
    {
      "inputs": [
        {
          "internalType": "bytes32",
          "name": "role",
          "type": "bytes32"
        }
      ],
      "name": "getRoleAdmin",
      "outputs": [
        {
          "internalType": "bytes32",
          "name": "",
          "type": "bytes32"
        }
      ],
      "stateMutability": "view",
      "type": "function"
    },
    {
      "inputs": [
        {
          "internalType": "bytes32",
          "name": "role",
          "type": "bytes32"
        },
        {
          "internalType": "uint256",
          "name": "index",
          "type": "uint256"
        }
      ],
      "name": "getRoleMember",
      "outputs": [
        {
          "internalType": "address",
          "name": "",
          "type": "address"
        }
      ],
      "stateMutability": "view",
      "type": "function"
    },
    {
      "inputs": [
        {
          "internalType": "bytes32",
          "name": "role",
          "type": "bytes32"
        }
      ],
      "name": "getRoleMemberCount",
      "outputs": [
        {
          "internalType": "uint256",
          "name": "",
          "type": "uint256"
        }
      ],
      "stateMutability": "view",
      "type": "function"
    },
    {
      "inputs": [
        {
          "internalType": "address",
          "name": "user",
          "type": "address"
        }
      ],
      "name": "getUserDeployment",
      "outputs": [
        {
          "internalType": "address",
          "name": "",
          "type": "address"
        }
      ],
      "stateMutability": "view",
      "type": "function"
    },
    {
      "inputs": [
        {
          "internalType": "bytes32",
          "name": "role",
          "type": "bytes32"
        },
        {
          "internalType": "address",
          "name": "account",
          "type": "address"
        }
      ],
      "name": "grantRole",
      "outputs": [],
      "stateMutability": "nonpayable",
      "type": "function"
    },
    {
      "inputs": [
        {
          "internalType": "bytes32",
          "name": "role",
          "type": "bytes32"
        },
        {
          "internalType": "address",
          "name": "account",
          "type": "address"
        }
      ],
      "name": "hasRole",
      "outputs": [
        {
          "internalType": "bool",
          "name": "",
          "type": "bool"
        }
      ],
      "stateMutability": "view",
      "type": "function"
    },
    {
      "inputs": [
        {
          "internalType": "address",
          "name": "user",
          "type": "address"
        },
        {
          "internalType": "address",
          "name": "deployment",
          "type": "address"
        }
      ],
      "name": "reinitialize",
      "outputs": [],
      "stateMutability": "nonpayable",
      "type": "function"
    },
    {
      "inputs": [
        {
          "internalType": "address",
          "name": "user",
          "type": "address"
        }
      ],
      "name": "remove",
      "outputs": [],
      "stateMutability": "nonpayable",
      "type": "function"
    },
    {
      "inputs": [
        {
          "internalType": "bytes32",
          "name": "role",
          "type": "bytes32"
        },
        {
          "internalType": "address",
          "name": "account",
          "type": "address"
        }
      ],
      "name": "renounceRole",
      "outputs": [],
      "stateMutability": "nonpayable",
      "type": "function"
    },
    {
      "inputs": [
        {
          "internalType": "bytes32",
          "name": "role",
          "type": "bytes32"
        },
        {
          "internalType": "address",
          "name": "account",
          "type": "address"
        }
      ],
      "name": "revokeRole",
      "outputs": [],
      "stateMutability": "nonpayable",
      "type": "function"
    },
    {
      "inputs": [
        {
          "internalType": "bytes4",
          "name": "interfaceId",
          "type": "bytes4"
        }
      ],
      "name": "supportsInterface",
      "outputs": [
        {
          "internalType": "bool",
          "name": "",
          "type": "bool"
        }
      ],
      "stateMutability": "view",
      "type": "function"
    }
  ],
  "bytecode": "0x60806040523480156200001157600080fd5b506200001f60003362000051565b6200004b7f97667070c54ef182b0f5858b034beac1b6f3089aa2d3188bb1e8929f4fa9b9293362000051565b620001b6565b6200005d828262000061565b5050565b620000788282620000a460201b620007131760201c565b60008281526001602090815260409091206200009f9183906200079762000144821b17901c565b505050565b6000828152602081815260408083206001600160a01b038516845290915290205460ff166200005d576000828152602081815260408083206001600160a01b03851684529091529020805460ff19166001179055620001003390565b6001600160a01b0316816001600160a01b0316837f2f8788117e7eff1d82e926ec794901d17c78024a50270940304540a733656f0d60405160405180910390a45050565b60006200015b836001600160a01b03841662000164565b90505b92915050565b6000818152600183016020526040812054620001ad575081546001818101845560008481526020808220909301849055845484825282860190935260409020919091556200015e565b5060006200015e565b610f1080620001c66000396000f3fe608060405234801561001057600080fd5b50600436106100ea5760003560e01c80639010d07c1161008c578063a9d951a311610066578063a9d951a3146101ef578063ca15c87314610202578063d547741f14610215578063f5b541a61461022857600080fd5b80639010d07c146101c157806391d14854146101d4578063a217fddf146101e757600080fd5b80632f2ff15d116100c85780632f2ff15d1461015d5780632f78b78b1461017057806336568abe1461019b57806352c28fab146101ae57600080fd5b806301ffc9a7146100ef578063248a9ca31461011757806329092d0e14610148575b600080fd5b6101026100fd366004610c2e565b61023d565b60405190151581526020015b60405180910390f35b61013a610125366004610c58565b60009081526020819052604090206001015490565b60405190815260200161010e565b61015b610156366004610c8d565b610268565b005b61015b61016b366004610ca8565b6102f3565b61018361017e366004610c8d565b61031d565b6040516001600160a01b03909116815260200161010e565b61015b6101a9366004610ca8565b610380565b61015b6101bc366004610cd4565b6103fe565b6101836101cf366004610cfe565b61058d565b6101026101e2366004610ca8565b6105ac565b61013a600081565b61015b6101fd366004610cd4565b6105d5565b61013a610210366004610c58565b6106d7565b61015b610223366004610ca8565b6106ee565b61013a600080516020610ee483398151915281565b60006001600160e01b03198216635a05180f60e01b14806102625750610262826107ac565b92915050565b600080516020610ee4833981519152610280816107e1565b6001600160a01b03808316600090815260026020526040902054839160019116151581146102c95760405162461bcd60e51b81526004016102c090610d20565b60405180910390fd5b5050506001600160a01b0316600090815260026020526040902080546001600160a01b0319169055565b60008281526020819052604090206001015461030e816107e1565b61031883836107ee565b505050565b6001600160a01b0380821660009081526002602052604081205490918391600191161515811461035f5760405162461bcd60e51b81526004016102c090610d20565b5050506001600160a01b039081166000908152600260205260409020541690565b6001600160a01b03811633146103f05760405162461bcd60e51b815260206004820152602f60248201527f416363657373436f6e74726f6c3a2063616e206f6e6c792072656e6f756e636560448201526e103937b632b9903337b91039b2b63360891b60648201526084016102c0565b6103fa8282610810565b5050565b600080516020610ee4833981519152610416816107e1565b82826001600160a01b03821661046a5760405162461bcd60e51b8152602060048201526019602482015278557365722063616e74206265207a65726f206164647265737360381b60448201526064016102c0565b6001600160a01b0381166104c05760405162461bcd60e51b815260206004820152601f60248201527f4465706c6f796d656e742063616e74206265207a65726f20616464726573730060448201526064016102c0565b6001600160a01b03808616600090815260026020526040812054879216156104fa5760405162461bcd60e51b81526004016102c090610d20565b856000816001600160a01b03163b116105555760405162461bcd60e51b815260206004820152601960248201527f41646472657373206973206e6f74206120636f6e74726163740000000000000060448201526064016102c0565b505050506001600160a01b03938416600090815260026020526040902080546001600160a01b03191693909416929092179092555050565b60008281526001602052604081206105a59083610832565b9392505050565b6000918252602082815260408084206001600160a01b0393909316845291905290205460ff1690565b600080516020610ee48339815191526105ed816107e1565b82826001600160a01b0382166106415760405162461bcd60e51b8152602060048201526019602482015278557365722063616e74206265207a65726f206164647265737360381b60448201526064016102c0565b6001600160a01b0381166106975760405162461bcd60e51b815260206004820152601f60248201527f4465706c6f796d656e742063616e74206265207a65726f20616464726573730060448201526064016102c0565b6001600160a01b03808616600090815260026020526040902054869160019116151581146104fa5760405162461bcd60e51b81526004016102c090610d20565b60008181526001602052604081206102629061083e565b600082815260208190526040902060010154610709816107e1565b6103188383610810565b61071d82826105ac565b6103fa576000828152602081815260408083206001600160a01b03851684529091529020805460ff191660011790556107533390565b6001600160a01b0316816001600160a01b0316837f2f8788117e7eff1d82e926ec794901d17c78024a50270940304540a733656f0d60405160405180910390a45050565b60006105a5836001600160a01b038416610848565b60006001600160e01b03198216637965db0b60e01b148061026257506301ffc9a760e01b6001600160e01b0319831614610262565b6107eb8133610897565b50565b6107f88282610713565b60008281526001602052604090206103189082610797565b61081a82826108fb565b60008281526001602052604090206103189082610960565b60006105a58383610975565b6000610262825490565b600081815260018301602052604081205461088f57508154600181810184556000848152602080822090930184905584548482528286019093526040902091909155610262565b506000610262565b6108a182826105ac565b6103fa576108b9816001600160a01b0316601461099f565b6108c483602061099f565b6040516020016108d5929190610d7e565b60408051601f198184030181529082905262461bcd60e51b82526102c091600401610df3565b61090582826105ac565b156103fa576000828152602081815260408083206001600160a01b0385168085529252808320805460ff1916905551339285917ff6391f5c32d9c69d2a47ea670b442974b53935d1edc7fd64eb21e047a839171b9190a45050565b60006105a5836001600160a01b038416610b3b565b600082600001828154811061098c5761098c610e26565b9060005260206000200154905092915050565b606060006109ae836002610e52565b6109b9906002610e71565b67ffffffffffffffff8111156109d1576109d1610e89565b6040519080825280601f01601f1916602001820160405280156109fb576020820181803683370190505b509050600360fc1b81600081518110610a1657610a16610e26565b60200101906001600160f81b031916908160001a905350600f60fb1b81600181518110610a4557610a45610e26565b60200101906001600160f81b031916908160001a9053506000610a69846002610e52565b610a74906001610e71565b90505b6001811115610aec576f181899199a1a9b1b9c1cb0b131b232b360811b85600f1660108110610aa857610aa8610e26565b1a60f81b828281518110610abe57610abe610e26565b60200101906001600160f81b031916908160001a90535060049490941c93610ae581610e9f565b9050610a77565b5083156105a55760405162461bcd60e51b815260206004820181905260248201527f537472696e67733a20686578206c656e67746820696e73756666696369656e7460448201526064016102c0565b60008181526001830160205260408120548015610c24576000610b5f600183610eb6565b8554909150600090610b7390600190610eb6565b9050818114610bd8576000866000018281548110610b9357610b93610e26565b9060005260206000200154905080876000018481548110610bb657610bb6610e26565b6000918252602080832090910192909255918252600188019052604090208390555b8554869080610be957610be9610ecd565b600190038181906000526020600020016000905590558560010160008681526020019081526020016000206000905560019350505050610262565b6000915050610262565b600060208284031215610c4057600080fd5b81356001600160e01b0319811681146105a557600080fd5b600060208284031215610c6a57600080fd5b5035919050565b80356001600160a01b0381168114610c8857600080fd5b919050565b600060208284031215610c9f57600080fd5b6105a582610c71565b60008060408385031215610cbb57600080fd5b82359150610ccb60208401610c71565b90509250929050565b60008060408385031215610ce757600080fd5b610cf083610c71565b9150610ccb60208401610c71565b60008060408385031215610d1157600080fd5b50508035926020909101359150565b60208082526014908201527311195c1b1bde5b595b9d081b9bdd08199bdd5b9960621b604082015260600190565b60005b83811015610d69578181015183820152602001610d51565b83811115610d78576000848401525b50505050565b7f416363657373436f6e74726f6c3a206163636f756e7420000000000000000000815260008351610db6816017850160208801610d4e565b7001034b99036b4b9b9b4b733903937b6329607d1b6017918401918201528351610de7816028840160208801610d4e565b01602801949350505050565b6020815260008251806020840152610e12816040850160208701610d4e565b601f01601f19169190910160400192915050565b634e487b7160e01b600052603260045260246000fd5b634e487b7160e01b600052601160045260246000fd5b6000816000190483118215151615610e6c57610e6c610e3c565b500290565b60008219821115610e8457610e84610e3c565b500190565b634e487b7160e01b600052604160045260246000fd5b600081610eae57610eae610e3c565b506000190190565b600082821015610ec857610ec8610e3c565b500390565b634e487b7160e01b600052603160045260246000fdfe97667070c54ef182b0f5858b034beac1b6f3089aa2d3188bb1e8929f4fa9b929a164736f6c6343000809000a",
  "linkReferences": {},
  "deployedLinkReferences": {}
}