{
  "_format": "hh-sol-artifact-1",
  "contractName": "AppRegistry",
  "sourceName": "contracts/AppRegistry.sol",
  "abi": [
    {
      "inputs": [],
      "stateMutability": "nonpayable",
      "type": "constructor"
    },
    {
      "anonymous": false,
      "inputs": [
        {
          "indexed": false,
          "internalType": "address",
          "name": "user",
          "type": "address"
        },
        {
          "indexed": false,
          "internalType": "address",
          "name": "deployment",
          "type": "address"
        }
      ],
      "name": "ApplicationRegistered",
      "type": "event"
    },
    {
      "anonymous": false,
      "inputs": [
        {
          "indexed": false,
          "internalType": "address",
          "name": "user",
          "type": "address"
        },
        {
          "indexed": false,
          "internalType": "address",
          "name": "deployment",
          "type": "address"
        }
      ],
      "name": "ApplicationRemoved",
      "type": "event"
    },
    {
      "anonymous": false,
      "inputs": [
        {
          "indexed": true,
          "internalType": "bytes32",
          "name": "role",
          "type": "bytes32"
        },
        {
          "indexed": true,
          "internalType": "bytes32",
          "name": "previousAdminRole",
          "type": "bytes32"
        },
        {
          "indexed": true,
          "internalType": "bytes32",
          "name": "newAdminRole",
          "type": "bytes32"
        }
      ],
      "name": "RoleAdminChanged",
      "type": "event"
    },
    {
      "anonymous": false,
      "inputs": [
        {
          "indexed": true,
          "internalType": "bytes32",
          "name": "role",
          "type": "bytes32"
        },
        {
          "indexed": true,
          "internalType": "address",
          "name": "account",
          "type": "address"
        },
        {
          "indexed": true,
          "internalType": "address",
          "name": "sender",
          "type": "address"
        }
      ],
      "name": "RoleGranted",
      "type": "event"
    },
    {
      "anonymous": false,
      "inputs": [
        {
          "indexed": true,
          "internalType": "bytes32",
          "name": "role",
          "type": "bytes32"
        },
        {
          "indexed": true,
          "internalType": "address",
          "name": "account",
          "type": "address"
        },
        {
          "indexed": true,
          "internalType": "address",
          "name": "sender",
          "type": "address"
        }
      ],
      "name": "RoleRevoked",
      "type": "event"
    },
    {
      "inputs": [],
      "name": "DEFAULT_ADMIN_ROLE",
      "outputs": [
        {
          "internalType": "bytes32",
          "name": "",
          "type": "bytes32"
        }
      ],
      "stateMutability": "view",
      "type": "function"
    },
    {
      "inputs": [],
      "name": "OPERATOR_ROLE",
      "outputs": [
        {
          "internalType": "bytes32",
          "name": "",
          "type": "bytes32"
        }
      ],
      "stateMutability": "view",
      "type": "function"
    },
    {
      "inputs": [
        {
          "internalType": "address",
          "name": "user",
          "type": "address"
        },
        {
          "internalType": "address",
          "name": "deployment",
          "type": "address"
        }
      ],
      "name": "add",
      "outputs": [],
      "stateMutability": "nonpayable",
      "type": "function"
    },
    {
      "inputs": [
        {
          "internalType": "bytes32",
          "name": "role",
          "type": "bytes32"
        }
      ],
      "name": "getRoleAdmin",
      "outputs": [
        {
          "internalType": "bytes32",
          "name": "",
          "type": "bytes32"
        }
      ],
      "stateMutability": "view",
      "type": "function"
    },
    {
      "inputs": [
        {
          "internalType": "bytes32",
          "name": "role",
          "type": "bytes32"
        },
        {
          "internalType": "uint256",
          "name": "index",
          "type": "uint256"
        }
      ],
      "name": "getRoleMember",
      "outputs": [
        {
          "internalType": "address",
          "name": "",
          "type": "address"
        }
      ],
      "stateMutability": "view",
      "type": "function"
    },
    {
      "inputs": [
        {
          "internalType": "bytes32",
          "name": "role",
          "type": "bytes32"
        }
      ],
      "name": "getRoleMemberCount",
      "outputs": [
        {
          "internalType": "uint256",
          "name": "",
          "type": "uint256"
        }
      ],
      "stateMutability": "view",
      "type": "function"
    },
    {
      "inputs": [
        {
          "internalType": "address",
          "name": "user",
          "type": "address"
        }
      ],
      "name": "getUserDeployment",
      "outputs": [
        {
          "internalType": "address",
          "name": "",
          "type": "address"
        }
      ],
      "stateMutability": "view",
      "type": "function"
    },
    {
      "inputs": [
        {
          "internalType": "bytes32",
          "name": "role",
          "type": "bytes32"
        },
        {
          "internalType": "address",
          "name": "account",
          "type": "address"
        }
      ],
      "name": "grantRole",
      "outputs": [],
      "stateMutability": "nonpayable",
      "type": "function"
    },
    {
      "inputs": [
        {
          "internalType": "bytes32",
          "name": "role",
          "type": "bytes32"
        },
        {
          "internalType": "address",
          "name": "account",
          "type": "address"
        }
      ],
      "name": "hasRole",
      "outputs": [
        {
          "internalType": "bool",
          "name": "",
          "type": "bool"
        }
      ],
      "stateMutability": "view",
      "type": "function"
    },
    {
      "inputs": [
        {
          "internalType": "address",
          "name": "user",
          "type": "address"
        }
      ],
      "name": "remove",
      "outputs": [],
      "stateMutability": "nonpayable",
      "type": "function"
    },
    {
      "inputs": [
        {
          "internalType": "bytes32",
          "name": "role",
          "type": "bytes32"
        },
        {
          "internalType": "address",
          "name": "account",
          "type": "address"
        }
      ],
      "name": "renounceRole",
      "outputs": [],
      "stateMutability": "nonpayable",
      "type": "function"
    },
    {
      "inputs": [
        {
          "internalType": "bytes32",
          "name": "role",
          "type": "bytes32"
        },
        {
          "internalType": "address",
          "name": "account",
          "type": "address"
        }
      ],
      "name": "revokeRole",
      "outputs": [],
      "stateMutability": "nonpayable",
      "type": "function"
    },
    {
      "inputs": [
        {
          "internalType": "bytes4",
          "name": "interfaceId",
          "type": "bytes4"
        }
      ],
      "name": "supportsInterface",
      "outputs": [
        {
          "internalType": "bool",
          "name": "",
          "type": "bool"
        }
      ],
      "stateMutability": "view",
      "type": "function"
    }
  ],
  "bytecode": "0x60806040523480156200001157600080fd5b506200001f60003362000051565b6200004b7f97667070c54ef182b0f5858b034beac1b6f3089aa2d3188bb1e8929f4fa9b9293362000051565b620001b6565b6200005d828262000061565b5050565b620000788282620000a460201b620006b81760201c565b60008281526001602090815260409091206200009f9183906200073c62000144821b17901c565b505050565b6000828152602081815260408083206001600160a01b038516845290915290205460ff166200005d576000828152602081815260408083206001600160a01b03851684529091529020805460ff19166001179055620001003390565b6001600160a01b0316816001600160a01b0316837f2f8788117e7eff1d82e926ec794901d17c78024a50270940304540a733656f0d60405160405180910390a45050565b60006200015b836001600160a01b03841662000164565b90505b92915050565b6000818152600183016020526040812054620001ad575081546001818101845560008481526020808220909301849055845484825282860190935260409020919091556200015e565b5060006200015e565b610ea880620001c66000396000f3fe608060405234801561001057600080fd5b50600436106100cf5760003560e01c806352c28fab1161008c578063a217fddf11610066578063a217fddf146101cc578063ca15c873146101d4578063d547741f146101e7578063f5b541a6146101fa57600080fd5b806352c28fab146101935780639010d07c146101a657806391d14854146101b957600080fd5b806301ffc9a7146100d4578063248a9ca3146100fc57806329092d0e1461012d5780632f2ff15d146101425780632f78b78b1461015557806336568abe14610180575b600080fd5b6100e76100e2366004610bd3565b610221565b60405190151581526020015b60405180910390f35b61011f61010a366004610bfd565b60009081526020819052604090206001015490565b6040519081526020016100f3565b61014061013b366004610c32565b61024c565b005b610140610150366004610c4d565b61038c565b610168610163366004610c32565b6103b6565b6040516001600160a01b0390911681526020016100f3565b61014061018e366004610c4d565b610419565b6101406101a1366004610c79565b610497565b6101686101b4366004610ca3565b610634565b6100e76101c7366004610c4d565b610653565b61011f600081565b61011f6101e2366004610bfd565b61067c565b6101406101f5366004610c4d565b610693565b61011f7f97667070c54ef182b0f5858b034beac1b6f3089aa2d3188bb1e8929f4fa9b92981565b60006001600160e01b03198216635a05180f60e01b1480610246575061024682610751565b92915050565b6001600160a01b03808216600090815260026020526040902054829160019116151581146102955760405162461bcd60e51b815260040161028c90610cc5565b60405180910390fd5b826102c07f97667070c54ef182b0f5858b034beac1b6f3089aa2d3188bb1e8929f4fa9b92933610653565b806102d35750336001600160a01b038216145b61031f5760405162461bcd60e51b815260206004820152601b60248201527f41707052656769737472793a204e6f7420617574686f72697a65640000000000604482015260640161028c565b6001600160a01b0384811660008181526002602090815260409182902080546001600160a01b0319811690915582519384529093169282018390527fa9f19f0cd3c046e455e5167338ca2f48e54aa9f9890c9e423316ff7b3c49d9b7910160405180910390a15050505050565b6000828152602081905260409020600101546103a781610786565b6103b18383610793565b505050565b6001600160a01b038082166000908152600260205260408120549091839160019116151581146103f85760405162461bcd60e51b815260040161028c90610cc5565b5050506001600160a01b039081166000908152600260205260409020541690565b6001600160a01b03811633146104895760405162461bcd60e51b815260206004820152602f60248201527f416363657373436f6e74726f6c3a2063616e206f6e6c792072656e6f756e636560448201526e103937b632b9903337b91039b2b63360891b606482015260840161028c565b61049382826107b5565b5050565b6001600160a01b03808316600090815260026020526040812054849216156104d15760405162461bcd60e51b815260040161028c90610cc5565b826000816001600160a01b03163b1161053b5760405162461bcd60e51b815260206004820152602660248201527f41707052656769737472793a2041646472657373206973206e6f74206120636f6044820152651b9d1c9858dd60d21b606482015260840161028c565b846105667f97667070c54ef182b0f5858b034beac1b6f3089aa2d3188bb1e8929f4fa9b92933610653565b806105795750336001600160a01b038216145b6105c55760405162461bcd60e51b815260206004820152601b60248201527f41707052656769737472793a204e6f7420617574686f72697a65640000000000604482015260640161028c565b6001600160a01b0386811660008181526002602090815260409182902080546001600160a01b031916948a16948517905581519283528201929092527f3d0793df34ff3f0805141327ed026d87b687550ff0475eb72c9ddbeacdfd8d97910160405180910390a1505050505050565b600082815260016020526040812061064c90836107d7565b9392505050565b6000918252602082815260408084206001600160a01b0393909316845291905290205460ff1690565b6000818152600160205260408120610246906107e3565b6000828152602081905260409020600101546106ae81610786565b6103b183836107b5565b6106c28282610653565b610493576000828152602081815260408083206001600160a01b03851684529091529020805460ff191660011790556106f83390565b6001600160a01b0316816001600160a01b0316837f2f8788117e7eff1d82e926ec794901d17c78024a50270940304540a733656f0d60405160405180910390a45050565b600061064c836001600160a01b0384166107ed565b60006001600160e01b03198216637965db0b60e01b148061024657506301ffc9a760e01b6001600160e01b0319831614610246565b610790813361083c565b50565b61079d82826106b8565b60008281526001602052604090206103b1908261073c565b6107bf82826108a0565b60008281526001602052604090206103b19082610905565b600061064c838361091a565b6000610246825490565b600081815260018301602052604081205461083457508154600181810184556000848152602080822090930184905584548482528286019093526040902091909155610246565b506000610246565b6108468282610653565b6104935761085e816001600160a01b03166014610944565b610869836020610944565b60405160200161087a929190610d36565b60408051601f198184030181529082905262461bcd60e51b825261028c91600401610dab565b6108aa8282610653565b15610493576000828152602081815260408083206001600160a01b0385168085529252808320805460ff1916905551339285917ff6391f5c32d9c69d2a47ea670b442974b53935d1edc7fd64eb21e047a839171b9190a45050565b600061064c836001600160a01b038416610ae0565b600082600001828154811061093157610931610dde565b9060005260206000200154905092915050565b60606000610953836002610e0a565b61095e906002610e29565b67ffffffffffffffff81111561097657610976610e41565b6040519080825280601f01601f1916602001820160405280156109a0576020820181803683370190505b509050600360fc1b816000815181106109bb576109bb610dde565b60200101906001600160f81b031916908160001a905350600f60fb1b816001815181106109ea576109ea610dde565b60200101906001600160f81b031916908160001a9053506000610a0e846002610e0a565b610a19906001610e29565b90505b6001811115610a91576f181899199a1a9b1b9c1cb0b131b232b360811b85600f1660108110610a4d57610a4d610dde565b1a60f81b828281518110610a6357610a63610dde565b60200101906001600160f81b031916908160001a90535060049490941c93610a8a81610e57565b9050610a1c565b50831561064c5760405162461bcd60e51b815260206004820181905260248201527f537472696e67733a20686578206c656e67746820696e73756666696369656e74604482015260640161028c565b60008181526001830160205260408120548015610bc9576000610b04600183610e6e565b8554909150600090610b1890600190610e6e565b9050818114610b7d576000866000018281548110610b3857610b38610dde565b9060005260206000200154905080876000018481548110610b5b57610b5b610dde565b6000918252602080832090910192909255918252600188019052604090208390555b8554869080610b8e57610b8e610e85565b600190038181906000526020600020016000905590558560010160008681526020019081526020016000206000905560019350505050610246565b6000915050610246565b600060208284031215610be557600080fd5b81356001600160e01b03198116811461064c57600080fd5b600060208284031215610c0f57600080fd5b5035919050565b80356001600160a01b0381168114610c2d57600080fd5b919050565b600060208284031215610c4457600080fd5b61064c82610c16565b60008060408385031215610c6057600080fd5b82359150610c7060208401610c16565b90509250929050565b60008060408385031215610c8c57600080fd5b610c9583610c16565b9150610c7060208401610c16565b60008060408385031215610cb657600080fd5b50508035926020909101359150565b60208082526021908201527f41707052656769737472793a204465706c6f796d656e74206e6f7420666f756e6040820152601960fa1b606082015260800190565b60005b83811015610d21578181015183820152602001610d09565b83811115610d30576000848401525b50505050565b7f416363657373436f6e74726f6c3a206163636f756e7420000000000000000000815260008351610d6e816017850160208801610d06565b7001034b99036b4b9b9b4b733903937b6329607d1b6017918401918201528351610d9f816028840160208801610d06565b01602801949350505050565b6020815260008251806020840152610dca816040850160208701610d06565b601f01601f19169190910160400192915050565b634e487b7160e01b600052603260045260246000fd5b634e487b7160e01b600052601160045260246000fd5b6000816000190483118215151615610e2457610e24610df4565b500290565b60008219821115610e3c57610e3c610df4565b500190565b634e487b7160e01b600052604160045260246000fd5b600081610e6657610e66610df4565b506000190190565b600082821015610e8057610e80610df4565b500390565b634e487b7160e01b600052603160045260246000fdfea164736f6c6343000809000a",
  "linkReferences": {},
  "deployedLinkReferences": {}
}