{
  "_format": "hh-sol-artifact-1",
  "contractName": "AppRegistry",
  "sourceName": "contracts/AppRegistry.sol",
  "abi": [
    {
      "inputs": [],
      "stateMutability": "nonpayable",
      "type": "constructor"
    },
    {
      "anonymous": false,
      "inputs": [
        {
          "indexed": true,
          "internalType": "bytes32",
          "name": "role",
          "type": "bytes32"
        },
        {
          "indexed": true,
          "internalType": "bytes32",
          "name": "previousAdminRole",
          "type": "bytes32"
        },
        {
          "indexed": true,
          "internalType": "bytes32",
          "name": "newAdminRole",
          "type": "bytes32"
        }
      ],
      "name": "RoleAdminChanged",
      "type": "event"
    },
    {
      "anonymous": false,
      "inputs": [
        {
          "indexed": true,
          "internalType": "bytes32",
          "name": "role",
          "type": "bytes32"
        },
        {
          "indexed": true,
          "internalType": "address",
          "name": "account",
          "type": "address"
        },
        {
          "indexed": true,
          "internalType": "address",
          "name": "sender",
          "type": "address"
        }
      ],
      "name": "RoleGranted",
      "type": "event"
    },
    {
      "anonymous": false,
      "inputs": [
        {
          "indexed": true,
          "internalType": "bytes32",
          "name": "role",
          "type": "bytes32"
        },
        {
          "indexed": true,
          "internalType": "address",
          "name": "account",
          "type": "address"
        },
        {
          "indexed": true,
          "internalType": "address",
          "name": "sender",
          "type": "address"
        }
      ],
      "name": "RoleRevoked",
      "type": "event"
    },
    {
      "inputs": [],
      "name": "DEFAULT_ADMIN_ROLE",
      "outputs": [
        {
          "internalType": "bytes32",
          "name": "",
          "type": "bytes32"
        }
      ],
      "stateMutability": "view",
      "type": "function"
    },
    {
      "inputs": [],
      "name": "OPERATOR_ROLE",
      "outputs": [
        {
          "internalType": "bytes32",
          "name": "",
          "type": "bytes32"
        }
      ],
      "stateMutability": "view",
      "type": "function"
    },
    {
      "inputs": [
        {
          "internalType": "address",
          "name": "user",
          "type": "address"
        },
        {
          "internalType": "address",
          "name": "deployment",
          "type": "address"
        }
      ],
      "name": "add",
      "outputs": [],
      "stateMutability": "nonpayable",
      "type": "function"
    },
    {
      "inputs": [
        {
          "internalType": "bytes32",
          "name": "role",
          "type": "bytes32"
        }
      ],
      "name": "getRoleAdmin",
      "outputs": [
        {
          "internalType": "bytes32",
          "name": "",
          "type": "bytes32"
        }
      ],
      "stateMutability": "view",
      "type": "function"
    },
    {
      "inputs": [
        {
          "internalType": "bytes32",
          "name": "role",
          "type": "bytes32"
        },
        {
          "internalType": "uint256",
          "name": "index",
          "type": "uint256"
        }
      ],
      "name": "getRoleMember",
      "outputs": [
        {
          "internalType": "address",
          "name": "",
          "type": "address"
        }
      ],
      "stateMutability": "view",
      "type": "function"
    },
    {
      "inputs": [
        {
          "internalType": "bytes32",
          "name": "role",
          "type": "bytes32"
        }
      ],
      "name": "getRoleMemberCount",
      "outputs": [
        {
          "internalType": "uint256",
          "name": "",
          "type": "uint256"
        }
      ],
      "stateMutability": "view",
      "type": "function"
    },
    {
      "inputs": [
        {
          "internalType": "address",
          "name": "user",
          "type": "address"
        }
      ],
      "name": "getUserDeployment",
      "outputs": [
        {
          "internalType": "address",
          "name": "",
          "type": "address"
        }
      ],
      "stateMutability": "view",
      "type": "function"
    },
    {
      "inputs": [
        {
          "internalType": "bytes32",
          "name": "role",
          "type": "bytes32"
        },
        {
          "internalType": "address",
          "name": "account",
          "type": "address"
        }
      ],
      "name": "grantRole",
      "outputs": [],
      "stateMutability": "nonpayable",
      "type": "function"
    },
    {
      "inputs": [
        {
          "internalType": "bytes32",
          "name": "role",
          "type": "bytes32"
        },
        {
          "internalType": "address",
          "name": "account",
          "type": "address"
        }
      ],
      "name": "hasRole",
      "outputs": [
        {
          "internalType": "bool",
          "name": "",
          "type": "bool"
        }
      ],
      "stateMutability": "view",
      "type": "function"
    },
    {
      "inputs": [
        {
          "internalType": "address",
          "name": "user",
          "type": "address"
        }
      ],
      "name": "remove",
      "outputs": [],
      "stateMutability": "nonpayable",
      "type": "function"
    },
    {
      "inputs": [
        {
          "internalType": "bytes32",
          "name": "role",
          "type": "bytes32"
        },
        {
          "internalType": "address",
          "name": "account",
          "type": "address"
        }
      ],
      "name": "renounceRole",
      "outputs": [],
      "stateMutability": "nonpayable",
      "type": "function"
    },
    {
      "inputs": [
        {
          "internalType": "bytes32",
          "name": "role",
          "type": "bytes32"
        },
        {
          "internalType": "address",
          "name": "account",
          "type": "address"
        }
      ],
      "name": "revokeRole",
      "outputs": [],
      "stateMutability": "nonpayable",
      "type": "function"
    },
    {
      "inputs": [
        {
          "internalType": "bytes4",
          "name": "interfaceId",
          "type": "bytes4"
        }
      ],
      "name": "supportsInterface",
      "outputs": [
        {
          "internalType": "bool",
          "name": "",
          "type": "bool"
        }
      ],
      "stateMutability": "view",
      "type": "function"
    }
  ],
  "bytecode": "0x60806040523480156200001157600080fd5b506200001f60003362000051565b6200004b7f97667070c54ef182b0f5858b034beac1b6f3089aa2d3188bb1e8929f4fa9b9293362000051565b620001b6565b6200005d828262000061565b5050565b620000788282620000a460201b620006bb1760201c565b60008281526001602090815260409091206200009f9183906200073f62000144821b17901c565b505050565b6000828152602081815260408083206001600160a01b038516845290915290205460ff166200005d576000828152602081815260408083206001600160a01b03851684529091529020805460ff19166001179055620001003390565b6001600160a01b0316816001600160a01b0316837f2f8788117e7eff1d82e926ec794901d17c78024a50270940304540a733656f0d60405160405180910390a45050565b60006200015b836001600160a01b03841662000164565b90505b92915050565b6000818152600183016020526040812054620001ad575081546001818101845560008481526020808220909301849055845484825282860190935260409020919091556200015e565b5060006200015e565b610e9880620001c66000396000f3fe608060405234801561001057600080fd5b50600436106100cf5760003560e01c806352c28fab1161008c578063a217fddf11610066578063a217fddf146101cc578063ca15c873146101d4578063d547741f146101e7578063f5b541a6146101fa57600080fd5b806352c28fab146101935780639010d07c146101a657806391d14854146101b957600080fd5b806301ffc9a7146100d4578063248a9ca3146100fc57806329092d0e1461012d5780632f2ff15d146101425780632f78b78b1461015557806336568abe14610180575b600080fd5b6100e76100e2366004610bd6565b610221565b60405190151581526020015b60405180910390f35b61011f61010a366004610c00565b60009081526020819052604090206001015490565b6040519081526020016100f3565b61014061013b366004610c35565b61024c565b005b610140610150366004610c50565b610338565b610168610163366004610c35565b610362565b6040516001600160a01b0390911681526020016100f3565b61014061018e366004610c50565b6103c5565b6101406101a1366004610c7c565b610443565b6101686101b4366004610ca6565b610637565b6100e76101c7366004610c50565b610656565b61011f600081565b61011f6101e2366004610c00565b61067f565b6101406101f5366004610c50565b610696565b61011f7f97667070c54ef182b0f5858b034beac1b6f3089aa2d3188bb1e8929f4fa9b92981565b60006001600160e01b03198216635a05180f60e01b1480610246575061024682610754565b92915050565b6001600160a01b03808216600090815260026020526040902054829160019116151581146102955760405162461bcd60e51b815260040161028c90610cc8565b60405180910390fd5b6102bf7f97667070c54ef182b0f5858b034beac1b6f3089aa2d3188bb1e8929f4fa9b92933610656565b806102d25750336001600160a01b038416145b61030f5760405162461bcd60e51b815260206004820152600e60248201526d139bdd08185d5d1a1bdc9a5e995960921b604482015260640161028c565b50506001600160a01b0316600090815260026020526040902080546001600160a01b0319169055565b60008281526020819052604090206001015461035381610789565b61035d8383610796565b505050565b6001600160a01b038082166000908152600260205260408120549091839160019116151581146103a45760405162461bcd60e51b815260040161028c90610cc8565b5050506001600160a01b039081166000908152600260205260409020541690565b6001600160a01b03811633146104355760405162461bcd60e51b815260206004820152602f60248201527f416363657373436f6e74726f6c3a2063616e206f6e6c792072656e6f756e636560448201526e103937b632b9903337b91039b2b63360891b606482015260840161028c565b61043f82826107b8565b5050565b81816001600160a01b03821661049b5760405162461bcd60e51b815260206004820152601960248201527f557365722063616e74206265207a65726f206164647265737300000000000000604482015260640161028c565b6001600160a01b0381166104f15760405162461bcd60e51b815260206004820152601f60248201527f4465706c6f796d656e742063616e74206265207a65726f206164647265737300604482015260640161028c565b6001600160a01b038085166000908152600260205260408120548692161561052b5760405162461bcd60e51b815260040161028c90610cc8565b846000816001600160a01b03163b116105865760405162461bcd60e51b815260206004820152601960248201527f41646472657373206973206e6f74206120636f6e747261637400000000000000604482015260640161028c565b6105b07f97667070c54ef182b0f5858b034beac1b6f3089aa2d3188bb1e8929f4fa9b92933610656565b806105c35750336001600160a01b038816145b6106005760405162461bcd60e51b815260206004820152600e60248201526d139bdd08185d5d1a1bdc9a5e995960921b604482015260640161028c565b505050506001600160a01b03928316600090815260026020526040902080546001600160a01b031916929093169190911790915550565b600082815260016020526040812061064f90836107da565b9392505050565b6000918252602082815260408084206001600160a01b0393909316845291905290205460ff1690565b6000818152600160205260408120610246906107e6565b6000828152602081905260409020600101546106b181610789565b61035d83836107b8565b6106c58282610656565b61043f576000828152602081815260408083206001600160a01b03851684529091529020805460ff191660011790556106fb3390565b6001600160a01b0316816001600160a01b0316837f2f8788117e7eff1d82e926ec794901d17c78024a50270940304540a733656f0d60405160405180910390a45050565b600061064f836001600160a01b0384166107f0565b60006001600160e01b03198216637965db0b60e01b148061024657506301ffc9a760e01b6001600160e01b0319831614610246565b610793813361083f565b50565b6107a082826106bb565b600082815260016020526040902061035d908261073f565b6107c282826108a3565b600082815260016020526040902061035d9082610908565b600061064f838361091d565b6000610246825490565b600081815260018301602052604081205461083757508154600181810184556000848152602080822090930184905584548482528286019093526040902091909155610246565b506000610246565b6108498282610656565b61043f57610861816001600160a01b03166014610947565b61086c836020610947565b60405160200161087d929190610d26565b60408051601f198184030181529082905262461bcd60e51b825261028c91600401610d9b565b6108ad8282610656565b1561043f576000828152602081815260408083206001600160a01b0385168085529252808320805460ff1916905551339285917ff6391f5c32d9c69d2a47ea670b442974b53935d1edc7fd64eb21e047a839171b9190a45050565b600061064f836001600160a01b038416610ae3565b600082600001828154811061093457610934610dce565b9060005260206000200154905092915050565b60606000610956836002610dfa565b610961906002610e19565b67ffffffffffffffff81111561097957610979610e31565b6040519080825280601f01601f1916602001820160405280156109a3576020820181803683370190505b509050600360fc1b816000815181106109be576109be610dce565b60200101906001600160f81b031916908160001a905350600f60fb1b816001815181106109ed576109ed610dce565b60200101906001600160f81b031916908160001a9053506000610a11846002610dfa565b610a1c906001610e19565b90505b6001811115610a94576f181899199a1a9b1b9c1cb0b131b232b360811b85600f1660108110610a5057610a50610dce565b1a60f81b828281518110610a6657610a66610dce565b60200101906001600160f81b031916908160001a90535060049490941c93610a8d81610e47565b9050610a1f565b50831561064f5760405162461bcd60e51b815260206004820181905260248201527f537472696e67733a20686578206c656e67746820696e73756666696369656e74604482015260640161028c565b60008181526001830160205260408120548015610bcc576000610b07600183610e5e565b8554909150600090610b1b90600190610e5e565b9050818114610b80576000866000018281548110610b3b57610b3b610dce565b9060005260206000200154905080876000018481548110610b5e57610b5e610dce565b6000918252602080832090910192909255918252600188019052604090208390555b8554869080610b9157610b91610e75565b600190038181906000526020600020016000905590558560010160008681526020019081526020016000206000905560019350505050610246565b6000915050610246565b600060208284031215610be857600080fd5b81356001600160e01b03198116811461064f57600080fd5b600060208284031215610c1257600080fd5b5035919050565b80356001600160a01b0381168114610c3057600080fd5b919050565b600060208284031215610c4757600080fd5b61064f82610c19565b60008060408385031215610c6357600080fd5b82359150610c7360208401610c19565b90509250929050565b60008060408385031215610c8f57600080fd5b610c9883610c19565b9150610c7360208401610c19565b60008060408385031215610cb957600080fd5b50508035926020909101359150565b60208082526014908201527311195c1b1bde5b595b9d081b9bdd08199bdd5b9960621b604082015260600190565b60005b83811015610d11578181015183820152602001610cf9565b83811115610d20576000848401525b50505050565b7f416363657373436f6e74726f6c3a206163636f756e7420000000000000000000815260008351610d5e816017850160208801610cf6565b7001034b99036b4b9b9b4b733903937b6329607d1b6017918401918201528351610d8f816028840160208801610cf6565b01602801949350505050565b6020815260008251806020840152610dba816040850160208701610cf6565b601f01601f19169190910160400192915050565b634e487b7160e01b600052603260045260246000fd5b634e487b7160e01b600052601160045260246000fd5b6000816000190483118215151615610e1457610e14610de4565b500290565b60008219821115610e2c57610e2c610de4565b500190565b634e487b7160e01b600052604160045260246000fd5b600081610e5657610e56610de4565b506000190190565b600082821015610e7057610e70610de4565b500390565b634e487b7160e01b600052603160045260246000fdfea164736f6c6343000809000a",
  "linkReferences": {},
  "deployedLinkReferences": {}
}